:10000000EBEF08F0F76A140FF66E000EF722090006
:10001000F55012003132333435363738392A30232F
:10002000F76A300FF66E000EF7220900F550120045
:10003000280C010620202020202020202020202005
:1000400020202020000020202020202020202020F0
:100050002020202020200000253032642F2530323F
:10006000642F2530326420444F4D00002530326427
:100070002F253032642F25303264204C554E00003D
:10008000253032642F253032642F25303264204DE4
:1000900041520000253032642F253032642F253044
:1000A0003264204D49450000253032642F2530321E
:1000B000642F25303264204A5545000025303264D3
:1000C0002F253032642F25303264205649450000F8
:1000D000253032642F253032642F2530326420538E
:1000E0004142000048483A4D4D002563483A4D4D85
:1000F000000044442F4D4D2F5959204400002563E2
:10010000442F4D4D2F5959204400256325632F4D11
:100110004D2F595920440000253032642F25634D5E
:100120002F5959204400253032642F253032642F56
:100130005959204400003C202020656E74657220CF
:1001400020203E00072D434F4E46494720484F553B
:10015000522D0000072D434F4E464947204441543D
:10016000452D0000072D455849542D003C202020E6
:10017000656E7465722020203E00072D4C554E455B
:10018000532D0000072D4D41525445532D00072D8E
:100190004D494552434F4C45532D0000072D4A55BC
:1001A000455645532D00072D564945524E45532D72
:1001B0000000072D53414241444F2D00072D444F6D
:1001C0004D494E474F2D0000072D455849542043B7
:1001D0004F4E4649472D00003C202020656E746537
:1001E000722020203E00072D434F4E4649472052A3
:1001F000454C4F4A2D00072D434F4E464947204F4F
:100200004E2F4F46462D0000072D455849542D00CE
:1002100026EF09F0746B745107080DE3D89073331F
:1002200002E2899401D08984929492928982929276
:100230008992742BF0D7000C9290898071C073F072
:10024000E9DF72C073F0E6DF92908990000C929023
:1002500089802FC073F0DEDF92840000306A305056
:1002600007080FE3928480B402D0D89001D0D880E0
:1002700031329292898200D09292899200D0302AB3
:10028000EED79290899031C001F0000C9290899045
:1002900000D0929289928E0E716F726BCDDF900EAC
:1002A000716FA40E726FC8DF810E2F6ED0DF01C098
:1002B0002BF02B50800B04E0800E716F726BBCDF53
:1002C00028EF09F0EA6A8B0EE96EEF500EE0010E9E
:1002D000016E006A002EFED7012EFBD74A0E006E7B
:1002E000002EFED700D0EF2EF2D7000C92B102D034
:1002F0008A9801D08A88939892B302D08A9A01D0C2
:100300008A8A939A92B502D08A9C01D08A8C939C57
:1003100092B702D08A9E01D08A8E939E00008A8274
:10032000939200D08A929392000C936B9388000E64
:1003300081B8010E9313938A000E81BA010E006EEC
:10034000D890003600509313938C000E81BC010EA0
:10035000006E00360036FC0E001600509313938E8C
:10036000000E81BE010E006E003600360036F80E1B
:1003700000160050931393C001F0000C9388938AE9
:10038000938C938E8A86939600008A8293920000C3
:10039000CCDF01C092F08A92939200008A829392FD
:1003A0000000C3DF01C091F08A9293929398939AD0
:1003B000939C939E9239006EF00E0016005091119E
:1003C000016EE9EF01F09392939493968A9493943B
:1003D000D5D701C091F001BEFBD78F5302E18A94BB
:1003E00001D08A84939400008A96939600008A92A2
:1003F00093929039916F0F0E911791C092F076DF22
:1004000090510F0B916F926F71DF000C9398939A3C
:10041000939C939E9392939493968A9493948A96A2
:1004200093968A9293920F0E8B6F4CDF010E2B6E78
:100430002B50030808E3030E926F58DF050E8B6FF5
:1004400041DF2B2AF5D7020E926F50DF2B6A2B501B
:10045000030809E3036A2B50E3DD2C6E8F6B906F6A
:10046000B2DF2B2AF4D72AEF09F030C031F031384F
:10047000006E0F0E001600500A0DF3CF30F0313829
:10048000006EF00E00160050003A0F0E00160050DD
:10049000302630C001F0000C8C2D01D003D0400E6E
:1004A0008D6F01D08D6B010E8B5D8D278D51800975
:1004B0008E6F8F6B906F87DF000C7E51016A7D5DC0
:1004C00003E27DC000F00CD0006A080E7F6F7D371C
:1004D00000367E51005CD8B0006E01367F2FF7D712
:1004E000000C8A51070A07E00B0A0AE0060A10E02E
:1004F000020A14E018D0010E8B6F8C6FCDDF19D07B
:100500008F6B010E906F5FDF020E8B6FDBDE11D001
:10051000010E8B6F020E8C6FBFDF0BD08F6B100E36
:10052000906F51DF06D0010E8F6F8AC090F04BDFC5
:1005300000D0000C200E78A9300E796F77C000F043
:1005400077AF07D0001E002A00C077F02D0E796F1C
:10055000788F015077C07DF0640E7E6FAEDF00C0F3
:1005600077F0300E01247A6F77C07DF00A0E7E6F2F
:10057000A4DF300E00247C6F300E01247B6F79C025
:1005800000F078A702D078AF789578B90BD078AF23
:1005900022D078B520D000C07AF078B31CD000C04B
:1005A0007BF019D0300E7A5D16E100C07AF0200E93
:1005B000796F78A704D07895788378AF7893300EE8
:1005C0007B5D09E100C07BF0200E7A6F78A7F7D73A
:1005D000789378AF789178A503D079C08AF081DFDD
:1005E00078A303D07AC08AF07CDF78A103D07BC0E7
:1005F0008AF077DF7CC08AF074DF000C2BC077F0C4
:10060000010E786F97DF3A0E8A6F6BDF2CC077F0A0
:10061000010E786F8FDF3A0E8A6F63DF2DC077F09F
:10062000010E786F87DF8CEF09F00900F6CF88F0B4
:10063000F7CF89F0F5CF8AF054DF88C0F6FF89C084
:10064000F7FF872FF2D7000C010E2E5CF90FD8B000
:10065000CED0070FF9EF03F02BC077F0010E786FC3
:1006600069DF2F0E8A6F3DDF2CC077F0010E786FA7
:1006700061DF2F0E8A6F35DF2DC077F0010E786FA6
:1006800059DF660EF66E000EF76E040E876FCDDF33
:10069000AED02BC077F0010E786F4CDF2F0E8A6F33
:1006A00020DF2CC077F0010E786F44DF2F0E8A6FA9
:1006B00018DF2DC077F0010E786F3CDF7A0EF66EF2
:1006C000000EF76E040E876FB0DF91D02BC077F06D
:1006D000010E786F2FDF2F0E8A6F03DF2CC077F0AB
:1006E000010E786F27DF2F0E8A6FFBDE2DC077F0AB
:1006F000010E786F1FDF8E0EF66E000EF76E040E81
:10070000876F93DF74D02BC077F0010E786F12DF04
:100710002F0E8A6FE6DE2CC077F0010E786F0ADFAD
:100720002F0E8A6FDEDE2DC077F0010E786F02DFAC
:10073000A20EF66E000EF76E040E876F76DF57D0AE
:100740002BC077F0010E786FF5DE2F0E8A6FC9DEB1
:100750002CC077F0010E786FEDDE2F0E8A6FC1DEB0
:100760002DC077F0010E786FE5DEB60EF66E000E46
:10077000F76E040E876F59DF3AD02BC077F0010E69
:10078000786FD8DE2F0E8A6FACDE2CC077F0010EAA
:10079000786FD0DE2F0E8A6FA4DE2DC077F0010EA9
:1007A000786FC8DECA0EF66E000EF76E040E876F05
:1007B0003CDF1DD02BC077F0010E786FBBDE2F0E13
:1007C0008A6F8FDE2CC077F0010E786FB3DE2F0EAC
:1007D0008A6F87DE2DC077F0010E786FABDEDE0EFC
:1007E000F66E000EF76E040E876F1FDF00D09CEFD1
:1007F00009F0E824F76AF7360D0FF66E080EF722B7
:100800000A00F550FA6E0800F550F96E5806920687
:10081000CC06060740077A07B4079580000E83B020
:10082000010E896F9582000E83B2010E891795849F
:10083000000E83B4010E89179586000E83B6010E53
:10084000891504E0000E016E04D003D0010E016E84
:1008500000D0000C876B042A0450210856E2075090
:1008600005E0010A0AE0030A0FE015D095988C987C
:10087000959A8C8A959C8C8C0ED095988C88959A9C
:100880008C9A959C8C8C07D095988C88959A8C8A9C
:10089000959C8C9C00D005A008D0BFDF015204E1DC
:1008A000059006C087F0066A2FD0B7DF015227E017
:1008B000958083B002D0886B11D0958283B203D02B
:1008C000010E886F0BD0958483B403D0020E886F1D
:1008D00005D0958683B602D0030E886F8851030D2C
:1008E000F3508A6B896F036A07508925016E8A511C
:1008F0000322015002EC00F0066E058005D0072AA5
:100900000750030801E1076A046A87C001F0000C80
:100910000900F5520CE0F6CF88F0F7CF89F0F5CF5B
:100920008AF0DFDD88C0F6FF89C0F7FFF1D7000C41
:10093000872D01D003D08751020809E1010E8B6F8A
:100940008C6FAADD340EF66E000EF76EE1DF875174
:1009500002080AE1010E8B6F020E8C6F9DDD460EC0
:10096000F66E000EF76ED4DF000CEF520FE0EACF08
:1009700088F0E9CF87F0EFCF8AF0B3DD88C0EAFFD7
:1009800087C0E9FFE92AD8B4EA2AEFD7000C70C083
:100990007DF00A0E7E6F91DD01C071F071510A0D7C
:1009A000F350705D726F7139006EF00E00160050DA
:1009B0007211016E000C6CC070F0E9DF01C06EF0C6
:1009C000840E716F01C072F037DC6DC070F0DFDF34
:1009D00001C06EF0820E716F01C072F02DDC706B81
:1009E000D6DF01C06EF0800E716F01C072F024DCA2
:1009F0006BEF06F06CC070F0CADF01C070F0860EBD
:100A0000716F01C072F018DC6DC070F0C0DF01C002
:100A100070F0880E716F01C072F00EDC6EC070F065
:100A2000B6DF01C070F08C0E716F01C072F004DC93
:100A30006FC070F0ACDF01C070F08A0E716F01C042
:100A400072F01CEC01F0C7EF08F0020E876F70DF48
:100A5000010E4F6E020E8B6F8C6F1EDD360EF66E22
:100A6000010EF76E55DF4F52D8B4E9EF08F04F5042
:100A7000010A09E0030AD8B433D1010AD8B4CCEF93
:100A800008F0E8EF08F02D0E516E4E0E526E550E26
:100A9000536E450E546E560E556E410E566E200E18
:100AA000576E480E586E4F0E596E520E5A6E410ECA
:100AB0005B6E2D0E5C6E5D6A010E876F39DF440E32
:100AC000F66E010EF76E24DFC5DE01C050F0505007
:100AD000310802E1030E4F6E50503208D8A4FBD00B
:100AE0006D6B510E6C6F6DC07FF06CC07EF0846BCF
:100AF000020E876F1DDF070E8A6FF3DC7FC0EAFFEF
:100B00007EC0E9FF32DF050E8B6F020E8C6FC4DCF6
:100B1000E40EF66E000EF76EFBDE9CDE01C084F084
:100B200084512F0807E28451320804E384C080F026
:100B3000805101D0846B8453F0E0050E8B6F020E60
:100B40008C6FAADC80C08AF0CCDCEC0EF66E000E56
:100B5000F76E040E876F69DD7DDE01C084F0805181
:100B6000300803E0805131080BE184512F0807E27F
:100B70008451390804E384C081F0815101D0846B31
:100B8000805132080BE184512F0807E28451340868
:100B900004E384C081F0815101D0846B8453DCE094
:100BA000050E8B6F020E8C6F77DC80C08AF099DCAB
:100BB00081C08AF096DC3A0E8A6F93DC4D0E8A6F04
:100BC00090DC4D0E8A6F8DDC45DE01C084F08451CF
:100BD0002F0807E28451350804E384C082F0825173
:100BE00001D0846B8453F0E0050E8B6F020E8C6F86
:100BF00053DC80C08AF075DC81C08AF072DC3A0E6A
:100C00008A6F6FDC82C08AF06CDC4D0E8A6F69DC03
:100C100021DE01C084F084512F0807E28451350899
:100C200004E384C083F0835101D0846B8453F0E0EB
:100C3000050E8B6F020E8C6F2FDC80C08AF051DCAA
:100C400081C08AF04EDC3A0E8A6F4BDC82C08AF09B
:100C500048DC83C08AF045DC020E856FFA0E8B6F8C
:100C600062EC01F0852FFAD70A0E8A6F300E805D94
:100C7000876F300E815D886F8A51885D05E38A51E8
:100C80000A0DF3CF8AF0F8D787518A03F3508825ED
:100C9000896F89C001F001C049F00A0E8A6F300ED9
:100CA000825D876F300E835D886F8A51885D05E3B2
:100CB0008A510A0DF3CF8AF0F8D787518A03F3508F
:100CC0008825896F89C001F001C04AF049C06CF0E5
:100CD0004AC06DF070D650503308D8B44F2A78D23D
:100CE0002D0E5E6E4E0E5F6E550E606F450E616F7F
:100CF000560E626F410E636F200E646F460E656F75
:100D0000450E666F430E676F480E686F410E696F40
:100D10002D0E6A6F6B6B010E876F0ADE540EF66E36
:100D2000010EF76EF5DD96DD01C050F05050310830
:100D3000D8B44F0650503208D8A429D26D6B5E0E3D
:100D40006C6F6DC06FF06CC06EF0726B020E876FCF
:100D5000EFDD070E8A6F71EC02F06FC0EAFF6EC024
:100D6000E9FF03DE030E8B6F020E8C6F4CEC02F07A
:100D7000F20EF66E000EF76ECBDD6CDD01C072F088
:100D800072512F0807E27251330804E372C070F009
:100D9000705101D0726B7253F0E0030E8B6F020E34
:100DA0008C6F4CEC02F070C08AF071EC02F0000E17
:100DB000F66E010EF76E090E876F37DC4BDD01C052
:100DC00072F0705130080BE17251300807E2725135
:100DD000390804E372C071F0715101D0726B705127
:100DE00030080EE2705132080BE372512F0807E20F
:100DF0007251390804E372C071F0715101D0726B05
:100E0000705133080BE17251300803E07251310820
:100E100004E172C071F0715101D0726B7253CEE077
:100E2000030E8B6F020E8C6F4CEC02F070C08AF0D8
:100E300071EC02F071C08AF071EC02F00E0EF66EE9
:100E4000010EF76E080E876F15EC03F00A0E8A6F1D
:100E5000300E705D876F300E715D886F8A51885DCE
:100E600005E38A510A0DF3CF8AF0F8D787518A0338
:100E7000F3508825896F89C001F001C04BF0EADC8E
:100E800001C072F07251300803E07251310804E180
:100E900072C070F0705101D0726B7253F0E0030EAB
:100EA0008B6F020E8C6F4CEC02F04BC077F0010E92
:100EB000786F9AEC02F02F0E8A6F71EC02F070C01E
:100EC0008AF071EC02F01F0EF66E010EF76E060E40
:100ED000876F15EC03F0BEDC01C072F07051300872
:100EE0000BE17251300807E27251390804E372C015
:100EF00071F0715101D0726B705131080BE1725178
:100F00002F0807E27251320804E372C071F0715188
:100F100001D0726B7253DFE0030E8B6F020E8C6F89
:100F20004CEC02F00A0E8A6F300E705D876F300E47
:100F3000715D886F8A51885D05E38A510A0DF3CF90
:100F40008AF0F8D787518A03F3508825896F89C0C2
:100F500001F001C04CF04C50020A09E0060A0DE015
:100F6000020A11E00F0A15E0050A19E01ED04B50E5
:100F70001C0802E21C0E4B6E18D04B501E0802E2F9
:100F80001E0E4B6E12D04B501C0802E21C0E4B6E14
:100F90000CD04B501C0802E21C0E4B6E06D04B507E
:100FA0001C0802E21C0E4B6E00D04BC077F0010E05
:100FB000786F9AEC02F02F0E8A6F71EC02F04CC041
:100FC00077F0010E786F9AEC02F02F0EF66E010E9C
:100FD000F76E050E876F15EC03F03CDC01C072F074
:100FE00072512F0807E27251390804E372C070F0A1
:100FF000705101D0726B7253F0E0030E8B6F020ED2
:101000008C6F4CEC02F04BC077F0010E786F9AECCD
:1010100002F02F0E8A6F71EC02F04CC077F0010ED7
:10102000786F9AEC02F02F0E8A6F71EC02F070C0AC
:101030008AF071EC02F0590E8A6F71EC02F0200E0A
:101040008A6F71EC02F0440E8A6F71EC02F002DCE0
:1010500001C072F072512F0807E27251390804E39F
:1010600072C071F0715101D0726B7253F0E0030ED7
:101070008B6F020E8C6F4CEC02F00A0E8A6F300EF2
:10108000705D876F300E715D886F8A51885D05E3F2
:101090008A510A0DF3CF8AF0F8D787518A03F350AB
:1010A0008825896F89C001F001C04DF04BC077F0F1
:1010B000010E786F9AEC02F02F0E8A6F71EC02F03D
:1010C0004CC077F0010E786F9AEC02F02F0E8A6F09
:1010D00071EC02F04DC077F0010E786F9AEC02F0DF
:1010E000200E8A6F71EC02F0440E8A6F71EC02F0F0
:1010F0002AEC04F001C072F07251300807E272511C
:10110000390804E372C070F0705101D0726B7253F1
:10111000EFE0030E8B6F020E8C6F4CEC02F0300E82
:10112000705D4E6E4BC077F0010E786F9AEC02F056
:101130002F0E8A6F71EC02F04CC077F0010E786FC1
:101140009AEC02F02F0E8A6F71EC02F04DC077F02E
:10115000010E786F9AEC02F0200E8A6F71EC02F0AB
:101160004EC077F0010E786F9AEC02F0040E736FA8
:10117000FA0E8B6F62EC01F0732FFAD74BC06CF054
:101180004CC06DF04DC06EF04EC06FF033D4505077
:101190003308D8B44F2A1CD0010E876F98EC04F0A6
:1011A000640EF66E010EF76E88EC04F02AEC04F083
:1011B00001C050F050503108D8B44F06505032089A
:1011C000D8B44F6A5050330802E1010E4F6E00D080
:1011D0004AD4DEEF09F0F86AD09EEA6AE96A600E46
:1011E000D36ED350C150C00B0F09C16E070EB46E41
:1011F000046A0590066A076AC150C00B0F09C16EE8
:10120000C090C092C094C09EC280C69A949E9380A3
:101210009392010EC66E000EC76ED190800ED56EF1
:10122000CD6A000ECA6E000ECB6EB16A9484BD6AA0
:10123000B76AB66A070EB46E9250926E030E006ED5
:10124000002EFED7B450A19C08EF01F046EF01F04C
:1012500006EF02F0850E2F6E27EC01F001C02BF097
:1012600001C030F035EC02F001C024F0830E2F6E87
:1012700027EC01F001C02BF001C030F035EC02F09A
:1012800001C025F0810E2F6E27EC01F001C02BF07C
:1012900001C030F035EC02F001C026F0870E2F6E51
:1012A00027EC01F001C02BF001C030F035EC02F06A
:1012B00001C027F0890E2F6E27EC01F001C02BF042
:1012C00001C030F035EC02F001C028F08D0E2F6E19
:1012D00027EC01F001C02BF001C030F035EC02F03A
:1012E00001C029F08B0E2F6E27EC01F001C02BF00E
:1012F00001C030F035EC02F001C02AF0050E8B6F12
:10130000010E8C6F4CEC02F024C02BF025C02CF0A9
:1013100026C02DF0FEEF02F0030E8B6F020E8C6FD5
:101320004CEC02F027C02BF028C02CF029C02DF087
:101330002AC02EF024EF03F0070E8A6F71EC02F042
:101340002AEC04F00152D8B476EF1AF0020E876F3F
:1013500098EC04F0010E2B6E020E8B6F8C6F4CEC30
:1013600002F0D80EF66E010EF76E88EC04F02B52E8
:10137000D8B472EF1AF02B50010A08E0030A24E0F7
:10138000010AD8B454EF1AF070EF1AF0010E876F0B
:1013900098EC04F0E60EF66E010EF76E88EC04F0A1
:1013A0002AEC04F001C02CF02C50310802E1030EAD
:1013B0002B6E2C50320802E125EF05F02C5033083B
:1013C000D8B42B2A70EF1AF0010E876F98EC04F056
:1013D000F60EF66E010EF76E88EC04F02AEC04F0BF
:1013E00001C02CF02C503108D8B42B062C503208F8
:1013F000D8A44FEF1AF02D0E496E480E4A6E4F0ECC
:101400004B6E520E4C6E410E4D6E200E4E6E4F0EB8
:101410004F6E4E0E506E2D0E516E526A536E480E28
:10142000546E4F0E556E520E566E410E576E200E74
:10143000586E4F0E596E460E5A6E5B6E2D0E5C6ED8
:101440005D6A020E876F98EC04F0010E5E6E020E6C
:101450008B6F8C6F4CEC02F06C0EF66E010EF76E1B
:1014600088EC04F05E52D8B44FEF1AF05E50010AD7
:101470001DE0030AD8B45FD2010AD8B4DFEF0EF042
:10148000070AD8B423EF11F0010AD8B467EF13F0BC
:10149000030AD8B4ABEF15F0010AD8B4EEEF17F099
:1014A0000F0AD8B431EF1AF04DEF1AF0010E876F22
:1014B00098EC04F07A0EF66E010EF76E88EC04F0EC
:1014C0002AEC04F001C05FF05F50310802E1080E21
:1014D0005E6E5F503208D8A428D2616B490E606FEF
:1014E00061C07FF060C07EF0846B020E876F98EC65
:1014F00004F0070E8A6F71EC02F07FC0EAFF7EC035
:10150000E9FFB5EC04F0050E8B6F020E8C6F4CEC0E
:1015100002F0E40EF66E000EF76E88EC04F02AEC92
:1015200004F001C084F084512F0807E2845132088E
:1015300004E384C080F0805101D0846B8453EFE0D9
:10154000050E8B6F020E8C6F4CEC02F080C08AF09F
:1015500071EC02F0EC0EF66E000EF76E040E876F63
:1015600015EC03F02AEC04F001C084F0805130083F
:1015700003E0805131080BE184512F0807E28451C8
:10158000390804E384C081F0815101D0846B80511B
:1015900032080BE184512F0807E28451340804E338
:1015A00084C081F0815101D0846B8453DBE0050E4F
:1015B0008B6F020E8C6F4CEC02F080C08AF071ECE5
:1015C00002F081C08AF071EC02F03A0E8A6F71EC81
:1015D00002F04D0E8A6F71EC02F04D0E8A6F71ECC5
:1015E00002F02AEC04F001C084F084512F0807E2D5
:1015F0008451350804E384C082F0825101D0846BA9
:101600008453EFE0050E8B6F020E8C6F4CEC02F0F2
:1016100080C08AF071EC02F081C08AF071EC02F0B7
:101620003A0E8A6F71EC02F082C08AF071EC02F01F
:101630004D0E8A6F71EC02F02AEC04F001C084F0C8
:1016400084512F0807E28451350804E384C083F0F5
:10165000835101D0846B8453EFE0050E8B6F020E33
:101660008C6F4CEC02F080C08AF071EC02F081C00B
:101670008AF071EC02F03A0E8A6F71EC02F082C0CF
:101680008AF071EC02F083C08AF071EC02F0020E75
:10169000856FFA0E8B6F62EC01F0852FFAD70A0E78
:1016A0008A6F300E805D876F300E815D886F8A5142
:1016B000885D05E38A510A0DF3CF8AF0F8D7875188
:1016C0008A03F3508825896F89C001F001C008F0B2
:1016D0000A0E8A6F300E825D876F300E835D886FD1
:1016E0008A51885D05E38A510A0DF3CF8AF0F8D755
:1016F00087518A03F3508825896F89C001F001C0A2
:1017000009F0616B530E606F61C07FF060C07EF0C6
:10171000846B020E876F98EC04F0070E8A6F71ECF1
:1017200002F07FC0EAFF7EC0E9FFB5EC04F0050ED1
:101730008B6F020E8C6F4CEC02F0E40EF66E000E16
:10174000F76E88EC04F02AEC04F001C084F08451B8
:101750002F0807E28451320804E384C080F08051EE
:1017600001D0846B8453EFE0050E8B6F020E8C6FFB
:101770004CEC02F080C08AF071EC02F0EC0EF66ED8
:10178000000EF76E040E876F15EC03F02AEC04F0E0
:1017900001C084F08051300803E0805131080BE132
:1017A00084512F0807E28451390804E384C081F092
:1017B000815101D0846B805132080BE184512F0894
:1017C00007E28451340804E384C081F0815101D0E0
:1017D000846B8453DBE0050E8B6F020E8C6F4CEC38
:1017E00002F080C08AF071EC02F081C08AF071ECE6
:1017F00002F03A0E8A6F71EC02F04D0E8A6F71ECB6
:1018000002F04D0E8A6F71EC02F02AEC04F001C078
:1018100084F084512F0807E28451350804E384C022
:1018200082F0825101D0846B8453EFE0050E8B6F00
:10183000020E8C6F4CEC02F080C08AF071EC02F06A
:1018400081C08AF071EC02F03A0E8A6F71EC02F0FE
:1018500082C08AF071EC02F04D0E8A6F71EC02F0DA
:101860002AEC04F001C084F084512F0807E284516F
:10187000350804E384C083F0835101D0846B845322
:10188000EFE0050E8B6F020E8C6F4CEC02F080C007
:101890008AF071EC02F081C08AF071EC02F03A0E2D
:1018A0008A6F71EC02F082C08AF071EC02F083C0A2
:1018B0008AF071EC02F0020E856FFA0E8B6F62EC0B
:1018C00001F0852FFAD70A0E8A6F300E805D876F80
:1018D000300E815D886F8A51885D05E38A510A0D5B
:1018E000F3CF8AF0F8D787518A03F3508825896FA0
:1018F00089C001F001C00AF00A0E8A6F300E825DC5
:10190000876F300E835D886F8A51885D05E38A5149
:101910000A0DF3CF8AF0F8D787518A03F350882550
:10192000896F89C001F001C00BF05F503308D8B453
:101930005E2A4DEF1AF0010E876F98EC04F0840ECA
:10194000F66E010EF76E88EC04F02AEC04F001C08C
:101950005FF05F503108D8B45E065F503208D8A4FB
:1019600028D2616B490E606F61C07FF060C07EF06D
:10197000846B020E876F98EC04F0070E8A6F71EC8F
:1019800002F07FC0EAFF7EC0E9FFB5EC04F0050E6F
:101990008B6F020E8C6F4CEC02F0E40EF66E000EB4
:1019A000F76E88EC04F02AEC04F001C084F0845156
:1019B0002F0807E28451320804E384C080F080518C
:1019C00001D0846B8453EFE0050E8B6F020E8C6F99
:1019D0004CEC02F080C08AF071EC02F0EC0EF66E76
:1019E000000EF76E040E876F15EC03F02AEC04F07E
:1019F00001C084F08051300803E0805131080BE1D0
:101A000084512F0807E28451390804E384C081F02F
:101A1000815101D0846B805132080BE184512F0831
:101A200007E28451340804E384C081F0815101D07D
:101A3000846B8453DBE0050E8B6F020E8C6F4CECD5
:101A400002F080C08AF071EC02F081C08AF071EC83
:101A500002F03A0E8A6F71EC02F04D0E8A6F71EC53
:101A600002F04D0E8A6F71EC02F02AEC04F001C016
:101A700084F084512F0807E28451350804E384C0C0
:101A800082F0825101D0846B8453EFE0050E8B6F9E
:101A9000020E8C6F4CEC02F080C08AF071EC02F008
:101AA00081C08AF071EC02F03A0E8A6F71EC02F09C
:101AB00082C08AF071EC02F04D0E8A6F71EC02F078
:101AC0002AEC04F001C084F084512F0807E284510D
:101AD000350804E384C083F0835101D0846B8453C0
:101AE000EFE0050E8B6F020E8C6F4CEC02F080C0A5
:101AF0008AF071EC02F081C08AF071EC02F03A0ECB
:101B00008A6F71EC02F082C08AF071EC02F083C03F
:101B10008AF071EC02F0020E856FFA0E8B6F62ECA8
:101B200001F0852FFAD70A0E8A6F300E805D876F1D
:101B3000300E815D886F8A51885D05E38A510A0DF8
:101B4000F3CF8AF0F8D787518A03F3508825896F3D
:101B500089C001F001C00CF00A0E8A6F300E825D60
:101B6000876F300E835D886F8A51885D05E38A51E7
:101B70000A0DF3CF8AF0F8D787518A03F3508825EE
:101B8000896F89C001F001C00DF0616B530E606F69
:101B900061C07FF060C07EF0846B020E876F98ECAE
:101BA00004F0070E8A6F71EC02F07FC0EAFF7EC07E
:101BB000E9FFB5EC04F0050E8B6F020E8C6F4CEC58
:101BC00002F0E40EF66E000EF76E88EC04F02AECDC
:101BD00004F001C084F084512F0807E284513208D8
:101BE00004E384C080F0805101D0846B8453EFE023
:101BF000050E8B6F020E8C6F4CEC02F080C08AF0E9
:101C000071EC02F0EC0EF66E000EF76E040E876FAC
:101C100015EC03F02AEC04F001C084F08051300888
:101C200003E0805131080BE184512F0807E2845111
:101C3000390804E384C081F0815101D0846B805164
:101C400032080BE184512F0807E28451340804E381
:101C500084C081F0815101D0846B8453DBE0050E98
:101C60008B6F020E8C6F4CEC02F080C08AF071EC2E
:101C700002F081C08AF071EC02F03A0E8A6F71ECCA
:101C800002F04D0E8A6F71EC02F04D0E8A6F71EC0E
:101C900002F02AEC04F001C084F084512F0807E21E
:101CA0008451350804E384C082F0825101D0846BF2
:101CB0008453EFE0050E8B6F020E8C6F4CEC02F03C
:101CC00080C08AF071EC02F081C08AF071EC02F001
:101CD0003A0E8A6F71EC02F082C08AF071EC02F069
:101CE0004D0E8A6F71EC02F02AEC04F001C084F012
:101CF00084512F0807E28451350804E384C083F03F
:101D0000835101D0846B8453EFE0050E8B6F020E7C
:101D10008C6F4CEC02F080C08AF071EC02F081C054
:101D20008AF071EC02F03A0E8A6F71EC02F082C018
:101D30008AF071EC02F083C08AF071EC02F0020EBE
:101D4000856FFA0E8B6F62EC01F0852FFAD70A0EC1
:101D50008A6F300E805D876F300E815D886F8A518B
:101D6000885D05E38A510A0DF3CF8AF0F8D78751D1
:101D70008A03F3508825896F89C001F001C00EF0F5
:101D80000A0E8A6F300E825D876F300E835D886F1A
:101D90008A51885D05E38A510A0DF3CF8AF0F8D79E
:101DA00087518A03F3508825896F89C001F001C0EB
:101DB0000FF05F503308D8B45E2A4DEF1AF0010ED1
:101DC000876F98EC04F08E0EF66E010EF76E88ECBD
:101DD00004F02AEC04F001C05FF05F503108D8B481
:101DE0005E065F503208D8A428D2616B490E606F3E
:101DF00061C07FF060C07EF0846B020E876F98EC4C
:101E000004F0070E8A6F71EC02F07FC0EAFF7EC01B
:101E1000E9FFB5EC04F0050E8B6F020E8C6F4CECF5
:101E200002F0E40EF66E000EF76E88EC04F02AEC79
:101E300004F001C084F084512F0807E28451320875
:101E400004E384C080F0805101D0846B8453EFE0C0
:101E5000050E8B6F020E8C6F4CEC02F080C08AF086
:101E600071EC02F0EC0EF66E000EF76E040E876F4A
:101E700015EC03F02AEC04F001C084F08051300826
:101E800003E0805131080BE184512F0807E28451AF
:101E9000390804E384C081F0815101D0846B805102
:101EA00032080BE184512F0807E28451340804E31F
:101EB00084C081F0815101D0846B8453DBE0050E36
:101EC0008B6F020E8C6F4CEC02F080C08AF071ECCC
:101ED00002F081C08AF071EC02F03A0E8A6F71EC68
:101EE00002F04D0E8A6F71EC02F04D0E8A6F71ECAC
:101EF00002F02AEC04F001C084F084512F0807E2BC
:101F00008451350804E384C082F0825101D0846B8F
:101F10008453EFE0050E8B6F020E8C6F4CEC02F0D9
:101F200080C08AF071EC02F081C08AF071EC02F09E
:101F30003A0E8A6F71EC02F082C08AF071EC02F006
:101F40004D0E8A6F71EC02F02AEC04F001C084F0AF
:101F500084512F0807E28451350804E384C083F0DC
:101F6000835101D0846B8453EFE0050E8B6F020E1A
:101F70008C6F4CEC02F080C08AF071EC02F081C0F2
:101F80008AF071EC02F03A0E8A6F71EC02F082C0B6
:101F90008AF071EC02F083C08AF071EC02F0020E5C
:101FA000856FFA0E8B6F62EC01F0852FFAD70A0E5F
:101FB0008A6F300E805D876F300E815D886F8A5129
:101FC000885D05E38A510A0DF3CF8AF0F8D787516F
:101FD0008A03F3508825896F89C001F001C010F091
:101FE0000A0E8A6F300E825D876F300E835D886FB8
:101FF0008A51885D05E38A510A0DF3CF8AF0F8D73C
:1020000087518A03F3508825896F89C001F001C088
:1020100011F0616B530E606F61C07FF060C07EF0A5
:10202000846B020E876F98EC04F0070E8A6F71ECD8
:1020300002F07FC0EAFF7EC0E9FFB5EC04F0050EB8
:102040008B6F020E8C6F4CEC02F0E40EF66E000EFD
:10205000F76E88EC04F02AEC04F001C084F084519F
:102060002F0807E28451320804E384C080F08051D5
:1020700001D0846B8453EFE0050E8B6F020E8C6FE2
:102080004CEC02F080C08AF071EC02F0EC0EF66EBF
:10209000000EF76E040E876F15EC03F02AEC04F0C7
:1020A00001C084F08051300803E0805131080BE119
:1020B00084512F0807E28451390804E384C081F079
:1020C000815101D0846B805132080BE184512F087B
:1020D00007E28451340804E384C081F0815101D0C7
:1020E000846B8453DBE0050E8B6F020E8C6F4CEC1F
:1020F00002F080C08AF071EC02F081C08AF071ECCD
:1021000002F03A0E8A6F71EC02F04D0E8A6F71EC9C
:1021100002F04D0E8A6F71EC02F02AEC04F001C05F
:1021200084F084512F0807E28451350804E384C009
:1021300082F0825101D0846B8453EFE0050E8B6FE7
:10214000020E8C6F4CEC02F080C08AF071EC02F051
:1021500081C08AF071EC02F03A0E8A6F71EC02F0E5
:1021600082C08AF071EC02F04D0E8A6F71EC02F0C1
:102170002AEC04F001C084F084512F0807E2845156
:10218000350804E384C083F0835101D0846B845309
:10219000EFE0050E8B6F020E8C6F4CEC02F080C0EE
:1021A0008AF071EC02F081C08AF071EC02F03A0E14
:1021B0008A6F71EC02F082C08AF071EC02F083C089
:1021C0008AF071EC02F0020E856FFA0E8B6F62ECF2
:1021D00001F0852FFAD70A0E8A6F300E805D876F67
:1021E000300E815D886F8A51885D05E38A510A0D42
:1021F000F3CF8AF0F8D787518A03F3508825896F87
:1022000089C001F001C012F00A0E8A6F300E825DA3
:10221000876F300E835D886F8A51885D05E38A5130
:102220000A0DF3CF8AF0F8D787518A03F350882537
:10223000896F89C001F001C013F05F503308D8B432
:102240005E2A4DEF1AF0010E876F98EC04F09C0E99
:10225000F66E010EF76E88EC04F02AEC04F001C073
:102260005FF05F503108D8B45E065F503208D8A4E2
:1022700028D2616B490E606F61C07FF060C07EF054
:10228000846B020E876F98EC04F0070E8A6F71EC76
:1022900002F07FC0EAFF7EC0E9FFB5EC04F0050E56
:1022A0008B6F020E8C6F4CEC02F0E40EF66E000E9B
:1022B000F76E88EC04F02AEC04F001C084F084513D
:1022C0002F0807E28451320804E384C080F0805173
:1022D00001D0846B8453EFE0050E8B6F020E8C6F80
:1022E0004CEC02F080C08AF071EC02F0EC0EF66E5D
:1022F000000EF76E040E876F15EC03F02AEC04F065
:1023000001C084F08051300803E0805131080BE1B6
:1023100084512F0807E28451390804E384C081F016
:10232000815101D0846B805132080BE184512F0818
:1023300007E28451340804E384C081F0815101D064
:10234000846B8453DBE0050E8B6F020E8C6F4CECBC
:1023500002F080C08AF071EC02F081C08AF071EC6A
:1023600002F03A0E8A6F71EC02F04D0E8A6F71EC3A
:1023700002F04D0E8A6F71EC02F02AEC04F001C0FD
:1023800084F084512F0807E28451350804E384C0A7
:1023900082F0825101D0846B8453EFE0050E8B6F85
:1023A000020E8C6F4CEC02F080C08AF071EC02F0EF
:1023B00081C08AF071EC02F03A0E8A6F71EC02F083
:1023C00082C08AF071EC02F04D0E8A6F71EC02F05F
:1023D0002AEC04F001C084F084512F0807E28451F4
:1023E000350804E384C083F0835101D0846B8453A7
:1023F000EFE0050E8B6F020E8C6F4CEC02F080C08C
:102400008AF071EC02F081C08AF071EC02F03A0EB1
:102410008A6F71EC02F082C08AF071EC02F083C026
:102420008AF071EC02F0020E856FFA0E8B6F62EC8F
:1024300001F0852FFAD70A0E8A6F300E805D876F04
:10244000300E815D886F8A51885D05E38A510A0DDF
:10245000F3CF8AF0F8D787518A03F3508825896F24
:1024600089C001F001C014F00A0E8A6F300E825D3F
:10247000876F300E835D886F8A51885D05E38A51CE
:102480000A0DF3CF8AF0F8D787518A03F3508825D5
:10249000896F89C001F001C015F0616B530E606F48
:1024A00061C07FF060C07EF0846B020E876F98EC95
:1024B00004F0070E8A6F71EC02F07FC0EAFF7EC065
:1024C000E9FFB5EC04F0050E8B6F020E8C6F4CEC3F
:1024D00002F0E40EF66E000EF76E88EC04F02AECC3
:1024E00004F001C084F084512F0807E284513208BF
:1024F00004E384C080F0805101D0846B8453EFE00A
:10250000050E8B6F020E8C6F4CEC02F080C08AF0CF
:1025100071EC02F0EC0EF66E000EF76E040E876F93
:1025200015EC03F02AEC04F001C084F0805130086F
:1025300003E0805131080BE184512F0807E28451F8
:10254000390804E384C081F0815101D0846B80514B
:1025500032080BE184512F0807E28451340804E368
:1025600084C081F0815101D0846B8453DBE0050E7F
:102570008B6F020E8C6F4CEC02F080C08AF071EC15
:1025800002F081C08AF071EC02F03A0E8A6F71ECB1
:1025900002F04D0E8A6F71EC02F04D0E8A6F71ECF5
:1025A00002F02AEC04F001C084F084512F0807E205
:1025B0008451350804E384C082F0825101D0846BD9
:1025C0008453EFE0050E8B6F020E8C6F4CEC02F023
:1025D00080C08AF071EC02F081C08AF071EC02F0E8
:1025E0003A0E8A6F71EC02F082C08AF071EC02F050
:1025F0004D0E8A6F71EC02F02AEC04F001C084F0F9
:1026000084512F0807E28451350804E384C083F025
:10261000835101D0846B8453EFE0050E8B6F020E63
:102620008C6F4CEC02F080C08AF071EC02F081C03B
:102630008AF071EC02F03A0E8A6F71EC02F082C0FF
:102640008AF071EC02F083C08AF071EC02F0020EA5
:10265000856FFA0E8B6F62EC01F0852FFAD70A0EA8
:102660008A6F300E805D876F300E815D886F8A5172
:10267000885D05E38A510A0DF3CF8AF0F8D78751B8
:102680008A03F3508825896F89C001F001C016F0D4
:102690000A0E8A6F300E825D876F300E835D886F01
:1026A0008A51885D05E38A510A0DF3CF8AF0F8D785
:1026B00087518A03F3508825896F89C001F001C0D2
:1026C00017F05F503308D8B45E2A4DEF1AF0010EB0
:1026D000876F98EC04F0A60EF66E010EF76E88EC8C
:1026E00004F02AEC04F001C05FF05F503108D8B468
:1026F0005E065F503208D8A428D2616B490E606F25
:1027000061C07FF060C07EF0846B020E876F98EC32
:1027100004F0070E8A6F71EC02F07FC0EAFF7EC002
:10272000E9FFB5EC04F0050E8B6F020E8C6F4CECDC
:1027300002F0E40EF66E000EF76E88EC04F02AEC60
:1027400004F001C084F084512F0807E2845132085C
:1027500004E384C080F0805101D0846B8453EFE0A7
:10276000050E8B6F020E8C6F4CEC02F080C08AF06D
:1027700071EC02F0EC0EF66E000EF76E040E876F31
:1027800015EC03F02AEC04F001C084F0805130080D
:1027900003E0805131080BE184512F0807E2845196
:1027A000390804E384C081F0815101D0846B8051E9
:1027B00032080BE184512F0807E28451340804E306
:1027C00084C081F0815101D0846B8453DBE0050E1D
:1027D0008B6F020E8C6F4CEC02F080C08AF071ECB3
:1027E00002F081C08AF071EC02F03A0E8A6F71EC4F
:1027F00002F04D0E8A6F71EC02F04D0E8A6F71EC93
:1028000002F02AEC04F001C084F084512F0807E2A2
:102810008451350804E384C082F0825101D0846B76
:102820008453EFE0050E8B6F020E8C6F4CEC02F0C0
:1028300080C08AF071EC02F081C08AF071EC02F085
:102840003A0E8A6F71EC02F082C08AF071EC02F0ED
:102850004D0E8A6F71EC02F02AEC04F001C084F096
:1028600084512F0807E28451350804E384C083F0C3
:10287000835101D0846B8453EFE0050E8B6F020E01
:102880008C6F4CEC02F080C08AF071EC02F081C0D9
:102890008AF071EC02F03A0E8A6F71EC02F082C09D
:1028A0008AF071EC02F083C08AF071EC02F0020E43
:1028B000856FFA0E8B6F62EC01F0852FFAD70A0E46
:1028C0008A6F300E805D876F300E815D886F8A5110
:1028D000885D05E38A510A0DF3CF8AF0F8D7875156
:1028E0008A03F3508825896F89C001F001C018F070
:1028F0000A0E8A6F300E825D876F300E835D886F9F
:102900008A51885D05E38A510A0DF3CF8AF0F8D722
:1029100087518A03F3508825896F89C001F001C06F
:1029200019F0616B530E606F61C07FF060C07EF084
:10293000846B020E876F98EC04F0070E8A6F71ECBF
:1029400002F07FC0EAFF7EC0E9FFB5EC04F0050E9F
:102950008B6F020E8C6F4CEC02F0E40EF66E000EE4
:10296000F76E88EC04F02AEC04F001C084F0845186
:102970002F0807E28451320804E384C080F08051BC
:1029800001D0846B8453EFE0050E8B6F020E8C6FC9
:102990004CEC02F080C08AF071EC02F0EC0EF66EA6
:1029A000000EF76E040E876F15EC03F02AEC04F0AE
:1029B00001C084F08051300803E0805131080BE100
:1029C00084512F0807E28451390804E384C081F060
:1029D000815101D0846B805132080BE184512F0862
:1029E00007E28451340804E384C081F0815101D0AE
:1029F000846B8453DBE0050E8B6F020E8C6F4CEC06
:102A000002F080C08AF071EC02F081C08AF071ECB3
:102A100002F03A0E8A6F71EC02F04D0E8A6F71EC83
:102A200002F04D0E8A6F71EC02F02AEC04F001C046
:102A300084F084512F0807E28451350804E384C0F0
:102A400082F0825101D0846B8453EFE0050E8B6FCE
:102A5000020E8C6F4CEC02F080C08AF071EC02F038
:102A600081C08AF071EC02F03A0E8A6F71EC02F0CC
:102A700082C08AF071EC02F04D0E8A6F71EC02F0A8
:102A80002AEC04F001C084F084512F0807E284513D
:102A9000350804E384C083F0835101D0846B8453F0
:102AA000EFE0050E8B6F020E8C6F4CEC02F080C0D5
:102AB0008AF071EC02F081C08AF071EC02F03A0EFB
:102AC0008A6F71EC02F082C08AF071EC02F083C070
:102AD0008AF071EC02F0020E856FFA0E8B6F62ECD9
:102AE00001F0852FFAD70A0E8A6F300E805D876F4E
:102AF000300E815D886F8A51885D05E38A510A0D29
:102B0000F3CF8AF0F8D787518A03F3508825896F6D
:102B100089C001F001C01AF00A0E8A6F300E825D82
:102B2000876F300E835D886F8A51885D05E38A5117
:102B30000A0DF3CF8AF0F8D787518A03F35088251E
:102B4000896F89C001F001C01BF05F503308D8B411
:102B50005E2A4DEF1AF0010E876F98EC04F0B20E6A
:102B6000F66E010EF76E88EC04F02AEC04F001C05A
:102B70005FF05F503108D8B45E065F503208D8A4C9
:102B800028D2616B490E606F61C07FF060C07EF03B
:102B9000846B020E876F98EC04F0070E8A6F71EC5D
:102BA00002F07FC0EAFF7EC0E9FFB5EC04F0050E3D
:102BB0008B6F020E8C6F4CEC02F0E40EF66E000E82
:102BC000F76E88EC04F02AEC04F001C084F0845124
:102BD0002F0807E28451320804E384C080F080515A
:102BE00001D0846B8453EFE0050E8B6F020E8C6F67
:102BF0004CEC02F080C08AF071EC02F0EC0EF66E44
:102C0000000EF76E040E876F15EC03F02AEC04F04B
:102C100001C084F08051300803E0805131080BE19D
:102C200084512F0807E28451390804E384C081F0FD
:102C3000815101D0846B805132080BE184512F08FF
:102C400007E28451340804E384C081F0815101D04B
:102C5000846B8453DBE0050E8B6F020E8C6F4CECA3
:102C600002F080C08AF071EC02F081C08AF071EC51
:102C700002F03A0E8A6F71EC02F04D0E8A6F71EC21
:102C800002F04D0E8A6F71EC02F02AEC04F001C0E4
:102C900084F084512F0807E28451350804E384C08E
:102CA00082F0825101D0846B8453EFE0050E8B6F6C
:102CB000020E8C6F4CEC02F080C08AF071EC02F0D6
:102CC00081C08AF071EC02F03A0E8A6F71EC02F06A
:102CD00082C08AF071EC02F04D0E8A6F71EC02F046
:102CE0002AEC04F001C084F084512F0807E28451DB
:102CF000350804E384C083F0835101D0846B84538E
:102D0000EFE0050E8B6F020E8C6F4CEC02F080C072
:102D10008AF071EC02F081C08AF071EC02F03A0E98
:102D20008A6F71EC02F082C08AF071EC02F083C00D
:102D30008AF071EC02F0020E856FFA0E8B6F62EC76
:102D400001F0852FFAD70A0E8A6F300E805D876FEB
:102D5000300E815D886F8A51885D05E38A510A0DC6
:102D6000F3CF8AF0F8D787518A03F3508825896F0B
:102D700089C001F001C01CF00A0E8A6F300E825D1E
:102D8000876F300E835D886F8A51885D05E38A51B5
:102D90000A0DF3CF8AF0F8D787518A03F3508825BC
:102DA000896F89C001F001C01DF0616B530E606F27
:102DB00061C07FF060C07EF0846B020E876F98EC7C
:102DC00004F0070E8A6F71EC02F07FC0EAFF7EC04C
:102DD000E9FFB5EC04F0050E8B6F020E8C6F4CEC26
:102DE00002F0E40EF66E000EF76E88EC04F02AECAA
:102DF00004F001C084F084512F0807E284513208A6
:102E000004E384C080F0805101D0846B8453EFE0F0
:102E1000050E8B6F020E8C6F4CEC02F080C08AF0B6
:102E200071EC02F0EC0EF66E000EF76E040E876F7A
:102E300015EC03F02AEC04F001C084F08051300856
:102E400003E0805131080BE184512F0807E28451DF
:102E5000390804E384C081F0815101D0846B805132
:102E600032080BE184512F0807E28451340804E34F
:102E700084C081F0815101D0846B8453DBE0050E66
:102E80008B6F020E8C6F4CEC02F080C08AF071ECFC
:102E900002F081C08AF071EC02F03A0E8A6F71EC98
:102EA00002F04D0E8A6F71EC02F04D0E8A6F71ECDC
:102EB00002F02AEC04F001C084F084512F0807E2EC
:102EC0008451350804E384C082F0825101D0846BC0
:102ED0008453EFE0050E8B6F020E8C6F4CEC02F00A
:102EE00080C08AF071EC02F081C08AF071EC02F0CF
:102EF0003A0E8A6F71EC02F082C08AF071EC02F037
:102F00004D0E8A6F71EC02F02AEC04F001C084F0DF
:102F100084512F0807E28451350804E384C083F00C
:102F2000835101D0846B8453EFE0050E8B6F020E4A
:102F30008C6F4CEC02F080C08AF071EC02F081C022
:102F40008AF071EC02F03A0E8A6F71EC02F082C0E6
:102F50008AF071EC02F083C08AF071EC02F0020E8C
:102F6000856FFA0E8B6F62EC01F0852FFAD70A0E8F
:102F70008A6F300E805D876F300E815D886F8A5159
:102F8000885D05E38A510A0DF3CF8AF0F8D787519F
:102F90008A03F3508825896F89C001F001C01EF0B3
:102FA0000A0E8A6F300E825D876F300E835D886FE8
:102FB0008A51885D05E38A510A0DF3CF8AF0F8D76C
:102FC00087518A03F3508825896F89C001F001C0B9
:102FD0001FF05F503308D8B45E2A5FD2010E876FAE
:102FE00098EC04F0BC0EF66E010EF76E88EC04F05F
:102FF0002AEC04F001C05FF05F503108D8B45E06DF
:103000005F503208D8A428D2616B490E606F61C04E
:103010007FF060C07EF0846B020E876F98EC04F046
:10302000070E8A6F71EC02F07FC0EAFF7EC0E9FFF5
:10303000B5EC04F0050E8B6F020E8C6F4CEC02F0B9
:10304000E40EF66E000EF76E88EC04F02AEC04F045
:1030500001C084F084512F0807E28451320804E350
:1030600084C080F0805101D0846B8453EFE0050E62
:103070008B6F020E8C6F4CEC02F080C08AF071EC0A
:1030800002F0EC0EF66E000EF76E040E876F15EC74
:1030900003F02AEC04F001C084F08051300803E012
:1030A000805131080BE184512F0807E2845139081F
:1030B00004E384C081F0815101D0846B80513208D7
:1030C0000BE184512F0807E28451340804E384C0E3
:1030D00081F0815101D0846B8453DBE0050E8B6F4E
:1030E000020E8C6F4CEC02F080C08AF071EC02F0A2
:1030F00081C08AF071EC02F03A0E8A6F71EC02F036
:103100004D0E8A6F71EC02F04D0E8A6F71EC02F079
:103110002AEC04F001C084F084512F0807E28451A6
:10312000350804E384C082F0825101D0846B84535B
:10313000EFE0050E8B6F020E8C6F4CEC02F080C03E
:103140008AF071EC02F081C08AF071EC02F03A0E64
:103150008A6F71EC02F082C08AF071EC02F04D0EC1
:103160008A6F71EC02F02AEC04F001C084F0845103
:103170002F0807E28451350804E384C083F08351AB
:1031800001D0846B8453EFE0050E8B6F020E8C6FC1
:103190004CEC02F080C08AF071EC02F081C08AF041
:1031A00071EC02F03A0E8A6F71EC02F082C08AF084
:1031B00071EC02F083C08AF071EC02F0020E856FB0
:1031C000FA0E8B6F62EC01F0852FFAD70A0E8A6F28
:1031D000300E805D876F300E815D886F8A51885D0B
:1031E00005E38A510A0DF3CF8AF0F8D787518A0395
:1031F000F3508825896F89C001F001C020F00A0EC4
:103200008A6F300E825D876F300E835D886F8A51C2
:10321000885D05E38A510A0DF3CF8AF0F8D787510C
:103220008A03F3508825896F89C001F001C021F01D
:10323000616B530E606F61C07FF060C07EF0846B85
:10324000020E876F98EC04F0070E8A6F71EC02F0A3
:103250007FC0EAFF7EC0E9FFB5EC04F0050E8B6F7E
:10326000020E8C6F4CEC02F0E40EF66E000EF76E60
:1032700088EC04F02AEC04F001C084F084512F089B
:1032800007E28451320804E384C080F0805101D009
:10329000846B8453EFE0050E8B6F020E8C6F4CEC49
:1032A00002F080C08AF071EC02F0EC0EF66E000EB7
:1032B000F76E040E876F15EC03F02AEC04F001C0E2
:1032C00084F08051300803E0805131080BE18451D3
:1032D0002F0807E28451390804E384C081F081514A
:1032E00001D0846B805132080BE184512F0807E232
:1032F0008451340804E384C081F0815101D0846B8F
:103300008453DBE0050E8B6F020E8C6F4CEC02F0E9
:1033100080C08AF071EC02F081C08AF071EC02F09A
:103320003A0E8A6F71EC02F04D0E8A6F71EC02F06A
:103330004D0E8A6F71EC02F02AEC04F001C084F0AB
:1033400084512F0807E28451350804E384C082F0D9
:10335000825101D0846B8453EFE0050E8B6F020E17
:103360008C6F4CEC02F080C08AF071EC02F081C0EE
:103370008AF071EC02F03A0E8A6F71EC02F082C0B2
:103380008AF071EC02F04D0E8A6F71EC02F02AECBB
:1033900004F001C084F084512F0807E284513508FD
:1033A00004E384C083F0835101D0846B8453EFE045
:1033B000050E8B6F020E8C6F4CEC02F080C08AF011
:1033C00071EC02F081C08AF071EC02F03A0E8A6F63
:1033D00071EC02F082C08AF071EC02F083C08AF0D6
:1033E00071EC02F0020E856FFA0E8B6F62EC01F049
:1033F000852FFAD70A0E8A6F300E805D876F300EE8
:10340000815D886F8A51885D05E38A510A0DF3CF8B
:103410008AF0F8D787518A03F3508825896F89C0CD
:1034200001F001C022F00A0E8A6F300E825D876FB4
:10343000300E835D886F8A51885D05E38A510A0DDD
:10344000F3CF8AF0F8D787518A03F3508825896F24
:1034500089C001F001C023F05F503308D8B45E2A60
:103460001CD0010E876F98EC04F0C80EF66E010EAA
:10347000F76E88EC04F02AEC04F001C05FF05F50B6
:103480003108D8B45E065F503208D8B45E6A5F5027
:10349000330802E1010E5E6E00D032EF0AF02C50CC
:1034A0003308D8B42B2A1CD0010E876F98EC04F097
:1034B000080EF66E020EF76E88EC04F02AEC04F0AB
:1034C00001C02CF02C503108D8B42B062C503208F7
:1034D000D8B42B6A2C50330802E1010E2B6E00D0B9
:1034E000B7EF09F0020E876F98EC04F02AEF09F0AD
:0234F0000300D7
:020000040030CA
:0E0000003FC8390E0087A1000FC00FE00F406F
:00000001FF
;PIC18F4550
;CRC=C64B  CREATED="05-mar-17 10:39"
