:1000000000EF02F0F76A140FF66E000EF7220900F7
:10001000F5501200280C01060F6A0F5007080DE377
:10002000D8900E3202E2899401D0898492949292FF
:100030008982929289920F2AF0D7000C929089803F
:1000400009C00EF0E9DF0AC00EF0E6DF9290899059
:10005000000C929089800BC00EF0DEDF92840000CD
:100060000C6A0C5007080FE3928480B402D0D89039
:1000700001D0D8800D329292898200D092928992DA
:1000800000D00C2AEED7929089900DC001F0000CA0
:100090009290899000D0929289928E0E096E0A6A8F
:1000A000CDDF900E096EA40E0A6EC8DF810E0B6EB6
:1000B000D0DF01C008F00850800B04E0800E096E0C
:1000C0000A6ABCDF36EF02F0EA6A0F0EE96EEF5003
:1000D0000EE0010E016E006A002EFED7012EFBD746
:1000E0004A0E006E002EFED700D0EF2EF2D7000C85
:1000F00016B002D08C9801D08C88959816B202D098
:100100008C9A01D08C8A959A16B402D08C9C01D01E
:100110008C8C959C16B602D08C9E01D08C8E959EB0
:1001200000008C86959600D08C969596000C176AE8
:100130009588000E83B8010E1712958A000E83BAB7
:10014000010E006ED890003600501712958C000EEC
:1001500083BC010E006E00360036FC0E0016005007
:100160001712958E000E83BE010E006E003600360B
:100170000036F80E00160050171217C001F0000CE0
:100180009588958A958C958E8C84959400008C86A4
:1001900095960000CCDF01C016F08C969596000075
:1001A0008C8695960000C3DF01C015F08C9695965D
:1001B0009598959A959C959E1638006EF00E0016AF
:1001C00000501510016EEBEF00F095969592959406
:1001D0008C929592D5D701C015F001BEFBD7135272
:1001E00002E18C9201D08C82959200008C949594BF
:1001F00000008C9695961438156E0F0E151615C0C6
:1002000016F076DF14500F0B156E166E71DF000CB2
:100210009598959A959C959E9596959295948C9285
:1002200095928C9495948C9695960F0E0F6E4CDF4C
:10023000010E086E0850030808E3030E166E58DF1F
:10024000050E0F6E41DF082AF5D7020E166E50DF3D
:10025000086A0850030809E3036A0850D3DE096EF0
:10026000136A146EB2DF082AF4D737EF02F00CC01D
:100270000DF00D38006E0F0E001600500A0DF3CF72
:100280000CF00D38006EF00E00160050003A0F0E04
:10029000001600500C260CC001F0000C0F50016A33
:1002A0000E5C03E20EC000F00CD0006A080E106E67
:1002B0000E3600360F50005CD8B0006E0136102E9E
:1002C000F7D7000C102C01D003D0400E116E01D0D6
:1002D000116A010E0F5C112611508009126E136A0B
:1002E000146E73DF000C0E50070A07E00B0A0AE0D9
:1002F000060A10E0020A14E018D0010E0F6E106E0C
:10030000E1DF19D0136A010E146E5FDF020E0F6E6B
:10031000DBDE11D0010E0F6E020E106ED3DF0BD09C
:10032000136A100E146E51DF06D0010E136E0EC04C
:1003300014F04BDF00D0000C200E09A8300E0A6E1E
:1003400008C000F008AE07D0001E002A00C008F068
:100350002D0E0A6E098E015008C00EF0640E0F6E4D
:100360009DDF00C008F0300E01240B6E08C00EF0B7
:100370000A0E0F6E93DF300E00240D6E300E012436
:100380000C6E0AC000F009A602D009AE099409B8A3
:100390000BD009AE22D009B420D000C00BF009B2B6
:1003A0001CD000C00CF019D0300E0B5C16E100C060
:1003B0000BF0200E0A6E09A604D00994098209AE3A
:1003C0000992300E0C5C09E100C00CF0200E0B6E9F
:1003D00009A6F7D7099209AE099009A403D00AC06B
:1003E0000EF081DF09A203D00BC00EF07CDF09A064
:1003F00003D00CC00EF077DF0DC00EF074DF000CE0
:10040000F86AD09EEA6AE96A600ED36ED350C15092
:10041000C00B0F09C16E070EB46EC150C00B0F099F
:10042000C16EC090C092C094C09EC280C69A949E75
:1004300093809392010EC66E000EC76ED190800E0F
:10044000D56ECD6A000ECA6E000ECB6EB16A948472
:10045000BD6AB76AB66A070EB46E9250926E030E0A
:10046000006E002EFED7B450A19C12D6D1D6850EB8
:100470000B6EEFDD01C008F001C00CF0F8DE01C02A
:1004800005F0830E0B6EE5DD01C008F001C00CF035
:10049000EEDE01C006F0810E0B6EDBDD01C008F060
:1004A00001C00CF0E4DE01C007F005C008F01F0E2B
:1004B000096E42DF3A0E0E6E16DF06C008F01F0E00
:1004C000096E3ADF3A0E0E6E0EDF07C008F01F0EFF
:0E04D000096E32DF070E0E6E06DFC9D703007D
:020000040030CA
:0E0000003FC8390E0087A1000FC00FE00F406F
:00000001FF
;PIC18F4550
;CRC=5618  CREATED="21-feb-17 22:10"
