:1000000055EF09F0F76A140FF66E000EF72209009B
:10001000F55012003132333435363738392A30232F
:10002000F76A300FF66E000EF7220900F550120045
:10003000280C010620202020202020202020202005
:1000400020202020000020202020202020202020F0
:100050002020202020200000253032642F2530323F
:10006000642F2530326420444F4D00002530326427
:100070002F253032642F25303264204C554E00003D
:10008000253032642F253032642F25303264204DE4
:1000900041520000253032642F253032642F253044
:1000A0003264204D49450000253032642F2530321E
:1000B000642F25303264204A5545000025303264D3
:1000C0002F253032642F25303264205649450000F8
:1000D000253032642F253032642F2530326420538E
:1000E0004142000048483A4D4D002563483A4D4D85
:1000F000000044442F4D4D2F5959204400002563E2
:10010000442F4D4D2F5959204400256325632F4D11
:100110004D2F595920440000253032642F25634D5E
:100120002F5959204400253032642F253032642F56
:100130005959204400003C202020656E74657220CF
:1001400020203E00072D434F4E46494720484F553B
:10015000522D0000072D434F4E464947204441543D
:10016000452D0000072D455849542D003C202020E6
:10017000656E7465722020203E00072D4C554E455B
:10018000532D0000072D4D41525445532D00072D8E
:100190004D494552434F4C45532D0000072D4A55BC
:1001A000455645532D00072D564945524E45532D72
:1001B0000000072D53414241444F2D00072D444F6D
:1001C0004D494E474F2D0000072D455849542043B7
:1001D0004F4E4649472D00003C202020656E746537
:1001E000722020203E00072D434F4E4649472052A3
:1001F000454C4F4A2D00072D434F4E464947204F4F
:100200004E2F4F46462D0000072D455849542D00CE
:1002100090EF09F0746B745107080DE3D8907333B5
:1002200002E2899401D08984929492928982929276
:100230008992742BF0D7000C9290898071C073F072
:10024000E9DF72C073F0E6DF92908990000C929023
:1002500089802FC073F0DEDF92840000306A305056
:1002600007080FE3928480B402D0D89001D0D880E0
:1002700031329292898200D09292899200D0302AB3
:10028000EED79290899031C001F0000C9290899045
:1002900000D0929289928E0E716F726BCDDF900EAC
:1002A000716FA40E726FC8DF810E2F6ED0DF01C098
:1002B0002BF02B50800B04E0800E716F726BBCDF53
:1002C00092EF09F0EA6A8E0EE96EEF500EE0010E31
:1002D000016E006A002EFED7012EFBD74A0E006E7B
:1002E000002EFED700D0EF2EF2D7000C95B102D031
:1002F0008A9801D08A88939895B302D08A9A01D0BF
:100300008A8A939A95B502D08A9C01D08A8C939C54
:1003100095B702D08A9E01D08A8E939E00008A8271
:10032000939200D08A929392000C966B9388000E61
:1003300081B8010E9613938A000E81BA010E006EE9
:10034000D890003600509613938C000E81BC010E9D
:10035000006E00360036FC0E001600509613938E89
:10036000000E81BE010E006E003600360036F80E1B
:1003700000160050961396C001F0000C9388938AE3
:10038000938C938E8A86939600008A8293920000C3
:10039000CCDF01C095F08A92939200008A829392FA
:1003A0000000C3DF01C094F08A9293929398939ACD
:1003B000939C939E9539006EF00E00160050941198
:1003C000016EE9EF01F09392939493968A9493943B
:1003D000D5D701C094F001BEFBD7925302E18A94B5
:1003E00001D08A84939400008A96939600008A92A2
:1003F00093929339946F0F0E941794C095F076DF13
:1004000093510F0B946F956F71DF000C9398939A33
:10041000939C939E9392939493968A9493948A96A2
:1004200093968A9293920F0E8E6F4CDF010E2B6E75
:100430002B50030808E3030E956F58DF050E8E6FEF
:1004400041DF2B2AF5D7020E956F50DF2B6A2B5018
:10045000030809E3036A2B50E3DD2C6E926B936F64
:10046000B2DF2B2AF4D794EF09F02DC02FF02CC067
:100470002EF0306A305001081AE32F50036E2E50D0
:100480002E2AD8B42F2AE96E03C0EAFF2B502B2A5C
:10049000336EF2CF34F0F29E33C0A9FFA69CA69E25
:1004A000A680A85034BEF28EEF6E302AE3D79BEFC1
:1004B00009F030C031F03138006E0F0E00160050D8
:1004C0000A0DF3CF30F03138006EF00E00160050F8
:1004D000003A0F0E00160050302630C001F0000C1C
:1004E0008F2D01D003D0400E906F01D0906B010E84
:1004F0008E5D902790518009916F926B936F63DFAF
:10050000000C8E51016A8D5D03E28DC000F00CD0AD
:10051000006A080E8F6F8D3700368E51005CD8B0A0
:10052000006E01368F2FF7D7000C8D51070A07E0B8
:100530000B0A0AE0060A10E0020A14E018D0010EC5
:100540008E6F8F6FCDDF19D0926B010E936F3BDFF3
:10055000020E8E6FB7DE11D0010E8E6F020E8F6FFE
:10056000BFDF0BD0926B100E936F2DDF06D0010E04
:10057000926F8DC093F027DF00D0000C200E88A969
:10058000300E896F87C000F087AF07D0001E002AA9
:1005900000C087F02D0E896F888F015087C08DF0C5
:1005A000640E8E6FAEDF00C087F0300E01248A6FBC
:1005B00087C08DF00A0E8E6FA4DF300E00248C6F82
:1005C000300E01248B6F89C000F088A702D088AF5D
:1005D000889588B90BD088AF22D088B520D000C0CC
:1005E0008AF088B31CD000C08BF019D0300E8A5D21
:1005F00016E100C08AF0200E896F88A704D0889584
:10060000888388AF8893300E8B5D09E100C08BF042
:10061000200E8A6F88A7F7D7889388AF889188A51E
:1006200003D089C08DF081DF88A303D08AC08DF00C
:100630007CDF88A103D08BC08DF077DF8CC08DF07C
:1006400074DF000C2BC087F0010E886F97DF3A0E25
:100650008D6F6BDF2CC087F0010E886F8FDF3A0E35
:100660008D6F63DF2DC087F0010E886F87DFFDEF90
:1006700009F00900F6CF88F0F7CF89F0F5CF8DF0BB
:1006800054DF88C0F6FF89C0F7FF872FF2D7000C30
:10069000010E2E5CF90FD8B0CED0070F1DEF04F07D
:1006A0002BC087F0010E886F69DF2F0E8D6F3DDF45
:1006B0002CC087F0010E886F61DF2F0E8D6F35DF44
:1006C0002DC087F0010E886F59DF660EF66E000EA2
:1006D000F76E040E876FCDDFAED02BC087F0010E12
:1006E000886F4CDF2F0E8D6F20DF2CC087F0010E3E
:1006F000886F44DF2F0E8D6F18DF2DC087F0010E3D
:10070000886F3CDF7A0EF66E000EF76E040E876F70
:10071000B0DF91D02BC087F0010E886F2FDF2F0E36
:100720008D6F03DF2CC087F0010E886F27DF2F0E3F
:100730008D6FFBDE2DC087F0010E886F1FDF8E0EE0
:10074000F66E000EF76E040E876F93DF74D02BC029
:1007500087F0010E886F12DF2F0E8D6FE6DE2CC042
:1007600087F0010E886F0ADF2F0E8D6FDEDE2DC041
:1007700087F0010E886F02DFA20EF66E000EF76E94
:10078000040E876F76DF57D02BC087F0010E886F7D
:10079000F5DE2F0E8D6FC9DE2CC087F0010E886F3D
:1007A000EDDE2F0E8D6FC1DE2DC087F0010E886F3C
:1007B000E5DEB60EF66E000EF76E040E876F59DF9B
:1007C0003AD02BC087F0010E886FD8DE2F0E8D6FC8
:1007D000ACDE2CC087F0010E886FD0DE2F0E8D6F3F
:1007E000A4DE2DC087F0010E886FC8DECA0EF66E3B
:1007F000000EF76E040E876F3CDF1DD02BC087F014
:10080000010E886FBBDE2F0E8D6F8FDE2CC087F040
:10081000010E886FB3DE2F0E8D6F87DE2DC087F03F
:10082000010E886FABDEDE0EF66E000EF76E040E64
:10083000876F1FDF00D00DEF0AF0E824F76AF73664
:10084000550FF66E080EF7220A00F550FA6E0800F2
:10085000F550F96EA006DA0614074E078807C2079E
:10086000FC079580000E83B0010E896F9582000E03
:1008700083B2010E89179584000E83B4010E891787
:100880009586000E83B6010E891504E0000E016EF8
:1008900004D003D0010E016E00D0000C876B042A37
:1008A0000450210856E2075005E0010A0AE0030A55
:1008B0000FE015D095988C98959A8C8A959C8C8C85
:1008C0000ED095988C88959A8C9A959C8C8C07D094
:1008D00095988C88959A8C8A959C8C9C00D005A0C4
:1008E00008D0BFDF015204E1059006C087F0066A18
:1008F0002FD0B7DF015227E0958083B002D0886BFC
:1009000011D0958283B203D0010E886F0BD09584ED
:1009100083B403D0020E886F05D0958683B602D0CB
:10092000030E886F8851030DF3508A6B896F036A39
:1009300007508925016E8A510322015002EC00F014
:10094000066E058005D0072A0750030801E1076AF3
:10095000046A87C001F0000C0900F5520CE0F6CFE4
:1009600088F0F7CF89F0F5CF8DF0DFDD88C0F6FF96
:1009700089C0F7FFF1D7000C872D01D003D0875134
:10098000020809E1010E8E6F8F6FAADD340EF66E3C
:10099000000EF76EE1DF875102080AE1010E8E6F4B
:1009A000020E8F6F9DDD460EF66E000EF76ED4DFE1
:1009B000000CEF520FE0EACF88F0E9CF87F0EFCFDD
:1009C0008DF0B3DD88C0EAFF87C0E9FFE92AD8B41B
:1009D000EA2AEFD7000C70C08DF00A0E8E6F91DD01
:1009E00001C071F071510A0DF350705D726F713971
:1009F000006EF00E001600507211016E000C6CC0FB
:100A000070F0E9DF01C06EF0840E716F01C072F00A
:100A100013DC6DC070F0DFDF01C06EF0820E716F0D
:100A200001C072F009DC706BD6DF01C06EF0800E81
:100A3000716F01C072F000DCA4EF06F06CC070F0C2
:100A4000CADF01C070F0860E716F01C072F01CEC3D
:100A500001F06DC070F0BFDF01C070F0880E716FE3
:100A600001C072F01CEC01F06EC070F0B4DF01C088
:100A700070F08C0E716F01C072F01CEC01F06FC051
:100A800070F0A9DF01C070F08A0E716F01C072F0C2
:100A90001CEC01F001EF09F0020E876F6DDF010E13
:100AA0004F6E020E8E6F8F6F1BDD360EF66E010ECF
:100AB000F76E52DF4F52D8B423EF09F04F50010ABE
:100AC00009E0030AD8B445D1010AD8B406EF09F009
:100AD00022EF09F02D0E516E4E0E526E550E536ED2
:100AE000450E546E560E556E410E566E200E576EC4
:100AF000480E586E4F0E596E520E5A6E410E5B6E76
:100B00002D0E5C6E5D6A010E876F36DF440EF66E49
:100B1000010EF76E21DFC2DE01C050F050503108E7
:100B200002E1030E4F6E50503208D8A40DD16D6B08
:100B3000510E6C6F6DC07FF06CC07EF0846B020E46
:100B4000876F1ADF070E8D6FF0DC7FC0EAFF7EC073
:100B5000E9FF2FDF050E8E6F020E8F6FC1DC495249
:100B600008E14A5206E1E40EF66E000EF76EF4DE7E
:100B70000DD049C087F0010E886F00DD3A0E8D6FF1
:100B8000D4DC4AC087F0010E886FF8DC87DE01C034
:100B900084F084512F0807E28451320804E384C0B2
:100BA00080F0805101D0846B8453F0E0050E8E6F8D
:100BB000020E8F6F95DC80C08DF0B7DCEC0EF66E08
:100BC000000EF76E040E876F54DD68DE01C084F0FE
:100BD0008051300803E0805131080BE184512F0827
:100BE00007E28451390804E384C081F0815101D0C7
:100BF000846B805132080BE184512F0807E2845145
:100C0000340804E384C081F0815101D0846B8453A3
:100C1000DCE0050E8E6F020E8F6F62DC80C08DF0FF
:100C200084DC81C08DF081DC3A0E8D6F7EDC4D0E50
:100C30008D6F7BDC4D0E8D6F78DC30DE01C084F073
:100C400084512F0807E28451350804E384C082F000
:100C5000825101D0846B8453F0E0050E8E6F020E3A
:100C60008F6F3EDC80C08DF060DC81C08DF05DDC7C
:100C70003A0E8D6F5ADC82C08DF057DC4D0E8D6FB1
:100C800054DC0CDE01C084F084512F0807E284514B
:100C9000350804E384C083F0835101D0846B84530E
:100CA000F0E0050E8E6F020E8F6F1ADC80C08DF0A3
:100CB0003CDC81C08DF039DC3A0E8D6F36DC82C0B1
:100CC0008DF033DC83C08DF030DC020E856FFA0EC0
:100CD0008E6F62EC01F0852FFAD70A0E8A6F300E04
:100CE000805D876F300E815D886F8A51885D05E376
:100CF0008A510A0DF3CF8AF0F8D787518A03F3504F
:100D00008825896F89C001F001C049F00A0E8A6FF9
:100D1000300E825D876F300E835D886F8A51885DEB
:100D200005E38A510A0DF3CF8AF0F8D787518A0379
:100D3000F3508825896F89C001F001C04AF049C08D
:100D40006CF04AC06DF05BD650503308D8B44F2ACF
:100D500079D22D0E5E6E4E0E5F6E550E606F450E93
:100D6000616F560E626F410E636F200E646F460E08
:100D7000656F450E666F430E676F480E686F410ED4
:100D8000696F2D0E6A6F6B6B010E876FF5DD540E68
:100D9000F66E010EF76EE0DD81DD01C050F05050BF
:100DA0003108D8B44F0650503208D8A42AD26D6BFF
:100DB0005E0E6C6F6DC06FF06CC06EF0726B020EE9
:100DC000876FDADD070E8D6F95EC02F06FC0EAFFDA
:100DD0006EC0E9FFEEDD030E8E6F020E8F6F70ECBA
:100DE00002F0F20EF66E000EF76EB6DD57DD01C0B2
:100DF00072F072512F0807E27251330804E372C097
:100E000070F0705101D0726B7253F0E0030E8E6F70
:100E1000020E8F6F70EC02F070C08DF095EC02F056
:100E2000000EF66E010EF76E090E876F22DC36DDBE
:100E300001C072F0705130080BE17251300807E2C6
:100E40007251390804E372C071F0715101D0726BB4
:100E5000705130080EE2705132080BE372512F08C6
:100E600007E27251390804E372C071F0715101D088
:100E7000726B705133080BE17251300803E072510C
:100E8000310804E172C071F0715101D0726B72537C
:100E9000CEE0030E8E6F020E8F6F70EC02F070C00A
:100EA0008DF095EC02F071C08DF095EC02F00E0E15
:100EB000F66E010EF76E080E876F39EC03F00A0E1E
:100EC0008A6F300E705D876F300E715D886F8A514A
:100ED000885D05E38A510A0DF3CF8AF0F8D7875170
:100EE0008A03F3508825896F89C001F001C04BF057
:100EF000D5DC01C072F07251300803E07251310844
:100F000004E172C070F0705101D0726B7253F0E066
:100F1000030E8E6F020E8F6F70EC02F04BC087F0E5
:100F2000010E886FBEEC02F02F0E8D6F95EC02F073
:100F300070C08DF095EC02F01F0EF66E010EF76E8C
:100F4000060E876F39EC03F0A9DC01C072F0705116
:100F500030080BE17251300807E27251390804E39E
:100F600072C071F0715101D0726B705131080BE198
:100F700072512F0807E27251320804E372C071F017
:100F8000715101D0726B7253DFE0030E8E6F020E4F
:100F90008F6F70EC02F00A0E8A6F300E705D876FF3
:100FA000300E715D886F8A51885D05E38A510A0DA4
:100FB000F3CF8AF0F8D787518A03F3508825896FD9
:100FC00089C001F001C04CF04C50020A09E0060A49
:100FD0000DE0020A11E00F0A15E0050A19E01ED023
:100FE0004B501C0802E21C0E4B6E18D04B501E08D2
:100FF00002E21E0E4B6E12D04B501C0802E21C0E79
:101000004B6E0CD04B501C0802E21C0E4B6E06D0EF
:101010004B501C0802E21C0E4B6E00D04BC087F0F8
:10102000010E886FBEEC02F02F0E8D6F95EC02F072
:101030004CC087F0010E886FBEEC02F02F0EF66EEA
:10104000010EF76E050E876F39EC03F027DC01C047
:1010500072F072512F0807E27251390804E372C02E
:1010600070F0705101D0726B7253F0E0030E8E6F0E
:10107000020E8F6F70EC02F04BC087F0010E886F8C
:10108000BEEC02F02F0E8D6F95EC02F04CC087F095
:10109000010E886FBEEC02F02F0E8D6F95EC02F002
:1010A00070C08DF095EC02F0590E8D6F95EC02F04A
:1010B000200E8D6F95EC02F0440E8D6F95EC02F0D2
:1010C0004EEC04F001C072F072512F0807E2725129
:1010D000390804E372C071F0715101D0726B725320
:1010E000EFE0030E8E6F020E8F6F70EC02F00A0EAF
:1010F0008A6F300E705D876F300E715D886F8A5118
:10110000885D05E38A510A0DF3CF8AF0F8D787513D
:101110008A03F3508825896F89C001F001C04DF022
:101120004BC087F0010E886FBEEC02F02F0E8D6F62
:1011300095EC02F04CC087F0010E886FBEEC02F017
:101140002F0E8D6F95EC02F04DC087F0010E886F69
:10115000BEEC02F0200E8D6F95EC02F0440E8D6F08
:1011600095EC02F04EEC04F001C072F072513008C0
:1011700007E27251390804E372C070F0705101D077
:10118000726B7253EFE0030E8E6F020E8F6F70EC76
:1011900002F0300E705D4E6E4BC087F0010E886F0E
:1011A000BEEC02F02F0E8D6F95EC02F04CC087F074
:1011B000010E886FBEEC02F02F0E8D6F95EC02F0E1
:1011C0004DC087F0010E886FBEEC02F0200E8D6FCF
:1011D00095EC02F04EC087F0010E886FBEEC02F075
:1011E000040E736FFA0E8E6F62EC01F0732FFAD754
:1011F0004BC06CF04CC06DF04DC06EF04EC06FF047
:101200001DD450503308D8B44F2A1CD0010E876F1C
:10121000BCEC04F0640EF66E010EF76EACEC04F05C
:101220004EEC04F001C050F050503108D8B44F06D5
:1012300050503208D8B44F6A5050330802E1010EC2
:101240004F6E00D037D44FEF0AF07EC080F07DC0E3
:101250007FF0816B8151010826E37C517C2B826FEA
:101260008051036E7F517F2BD8B4802BE96E03C071
:10127000EAFFEFCF83F082C0A9FF83C0A8FFA69C3E
:10128000A69EA684F250006EF29E0F01550EA76E28
:10129000AA0EA76EA682A6B2FED7A6940050F2129E
:1012A0000001812BD7D7EDEF1BF0F86AD09EEA6AD8
:1012B000E96A600ED36ED350C150C00B0F09C16EE6
:1012C000070EB46E046A0590066A076AC150C00B27
:1012D0000F09C16EC090C092C094C09EC280C69AD1
:1012E000949E93809392010EC66E000EC76ED190AD
:1012F000800ED56ECD6A000ECA6E000ECB6EB16A3E
:101300009484BD6AB76AB66A070EB46E9250926E44
:10131000030E006E002EFED7B450A19C08EF01F022
:1013200046EF01F006EF02F0010E2B6E2D6A080E5B
:101330002C6E35EF02F0850E2F6E27EC01F001C008
:101340002BF001C030F059EC02F001C024F0830E04
:101350002F6E27EC01F001C02BF001C030F059ECEA
:1013600002F001C025F0810E2F6E27EC01F001C0C4
:101370002BF001C030F059EC02F001C026F0870ECE
:101380002F6E27EC01F001C02BF001C030F059ECBA
:1013900002F001C027F0890E2F6E27EC01F001C08A
:1013A0002BF001C030F059EC02F001C028F08D0E96
:1013B0002F6E27EC01F001C02BF001C030F059EC8A
:1013C00002F001C029F08B0E2F6E27EC01F001C056
:1013D0002BF001C030F059EC02F001C02AF0050EEC
:1013E0008E6F010E8F6F70EC02F024C02BF025C0C1
:1013F0002CF026C02DF022EF03F0030E8E6F020EAC
:101400008F6F70EC02F027C02BF028C02CF029C0A1
:101410002DF02AC02EF048EF03F0070E8D6F95ECEB
:1014200002F04EEC04F00152D8B414EF1CF0020E9E
:10143000876FBCEC04F0010E2B6E020E8E6F8F6F67
:1014400070EC02F0D80EF66E010EF76EACEC04F004
:101450002B52D8B410EF1CF02B50010A08E0030AFD
:1014600024E0010AD8B4F2EF1BF00EEF1CF0010EDD
:10147000876FBCEC04F0E60EF66E010EF76EACEC76
:1014800004F04EEC04F001C02CF02C50310802E1C5
:10149000030E2B6E2C50320802E14CEF05F02C505D
:1014A0003308D8B42B2A0EEF1CF0010E876FBCEC6A
:1014B00004F0F60EF66E010EF76EACEC04F04EEC96
:1014C00004F001C02CF02C503108D8B42B062C505D
:1014D0003208D8A4EDEF1BF02D0E496E480E4A6E6F
:1014E0004F0E4B6E520E4C6E410E4D6E200E4E6ED8
:1014F0004F0E4F6E4E0E506E2D0E516E526A536E41
:10150000480E546E4F0E556E520E566E410E576E6B
:10151000200E586E4F0E596E460E5A6E5B6E2D0E93
:101520005C6E5D6A020E876FBCEC04F0010E5E6EAD
:10153000020E8E6F8F6F70EC02F06C0EF66E010E65
:10154000F76EACEC04F05E52D8B4E6EF1BF05E50E0
:10155000010A1DE0030AD8B489D2010AD8B4A4EF65
:101560000FF0070AD8B412EF12F0010AD8B480EFD6
:1015700014F0030AD8B4EEEF16F0010AD8B45BEF0A
:1015800019F00F0AD8B4C8EF1BF0E4EF1BF0010EFE
:10159000876FBCEC04F07A0EF66E010EF76EACECC1
:1015A00004F04EEC04F001C05FF05F50310802E13E
:1015B000080E5E6E5F503208D8A452D2616B490E9D
:1015C000606F61C07FF060C07EF0846B020E876F39
:1015D000BCEC04F0070E8D6F95EC02F07FC0EAFFC3
:1015E0007EC0E9FFD9EC04F0050E8E6F020E8F6FFE
:1015F00070EC02F0085209E1095207E1E40EF66EC0
:10160000000EF76EACEC04F010D008C087F0010EAD
:10161000886FBEEC02F03A0E8D6F95EC02F009C0B7
:1016200087F0010E886FBEEC02F04EEC04F001C0B2
:1016300084F084512F0807E28451320804E384C007
:1016400080F0805101D0846B8453EFE0050E8E6FE3
:10165000020E8F6F70EC02F080C08DF095EC02F0FE
:10166000EC0EF66E000EF76E040E876F39EC03F089
:101670004EEC04F001C084F08051300803E080514A
:1016800031080BE184512F0807E28451390804E343
:1016900084C081F0815101D0846B805132080BE10C
:1016A00084512F0807E28451340804E384C081F098
:1016B000815101D0846B8453DBE0050E8E6F020EE6
:1016C0008F6F70EC02F080C08DF095EC02F081C05D
:1016D0008DF095EC02F03A0E8D6F95EC02F04D0E08
:1016E0008D6F95EC02F04D0E8D6F95EC02F04EEC87
:1016F00004F001C084F084512F0807E284513508BA
:1017000004E384C082F0825101D0846B8453EFE003
:10171000050E8E6F020E8F6F70EC02F080C08DF0A0
:1017200095EC02F081C08DF095EC02F03A0E8D6FD1
:1017300095EC02F082C08DF095EC02F04D0E8D6FAD
:1017400095EC02F04EEC04F001C084F084512F08B7
:1017500007E28451350804E384C083F0835101D04B
:10176000846B8453EFE0050E8E6F020E8F6F70EC6A
:1017700002F080C08DF095EC02F081C08DF095EC08
:1017800002F03A0E8D6F95EC02F082C08DF095EC70
:1017900002F083C08DF095EC02F0020E856FFA0E18
:1017A0008E6F62EC01F0852FFAD70A0E8A6F300E29
:1017B000805D876F300E815D886F8A51885D05E39B
:1017C0008A510A0DF3CF8AF0F8D787518A03F35074
:1017D0008825896F89C001F001C008F00A0E8A6F60
:1017E000300E825D876F300E835D886F8A51885D11
:1017F00005E38A510A0DF3CF8AF0F8D787518A039F
:10180000F3508825896F89C001F001C009F0616B30
:10181000530E606F61C07FF060C07EF0846B020E7B
:10182000876FBCEC04F0070E8D6F95EC02F07FC063
:10183000EAFF7EC0E9FFD9EC04F0050E8E6F020EC0
:101840008F6F70EC02F00A5209E10B5207E1E40ECF
:10185000F66E000EF76EACEC04F010D00AC087F004
:10186000010E886FBEEC02F03A0E8D6F95EC02F01F
:101870000BC087F0010E886FBEEC02F04EEC04F056
:1018800001C084F084512F0807E28451320804E338
:1018900084C080F0805101D0846B8453EFE0050E4A
:1018A0008E6F020E8F6F70EC02F080C08DF095ECA1
:1018B00002F0EC0EF66E000EF76E040E876F39EC38
:1018C00003F04EEC04F001C084F08051300803E0D6
:1018D000805131080BE184512F0807E28451390807
:1018E00004E384C081F0815101D0846B80513208BF
:1018F0000BE184512F0807E28451340804E384C0CB
:1019000081F0815101D0846B8453DBE0050E8E6F32
:10191000020E8F6F70EC02F080C08DF095EC02F03B
:1019200081C08DF095EC02F03A0E8D6F95EC02F0CF
:101930004D0E8D6F95EC02F04D0E8D6F95EC02F013
:101940004EEC04F001C084F084512F0807E284516A
:10195000350804E384C082F0825101D0846B845343
:10196000EFE0050E8E6F020E8F6F70EC02F080C0FC
:101970008DF095EC02F081C08DF095EC02F03A0EFE
:101980008D6F95EC02F082C08DF095EC02F04D0E5B
:101990008D6F95EC02F04EEC04F001C084F08451A0
:1019A0002F0807E28451350804E384C083F0835193
:1019B00001D0846B8453EFE0050E8E6F020E8F6FA3
:1019C00070EC02F080C08DF095EC02F081C08DF0DB
:1019D00095EC02F03A0E8D6F95EC02F082C08DF01E
:1019E00095EC02F083C08DF095EC02F0020E856F4D
:1019F000FA0E8E6F62EC01F0852FFAD70A0E8A6F0D
:101A0000300E805D876F300E815D886F8A51885DF2
:101A100005E38A510A0DF3CF8AF0F8D787518A037C
:101A2000F3508825896F89C001F001C00AF00A0EC1
:101A30008A6F300E825D876F300E835D886F8A51AA
:101A4000885D05E38A510A0DF3CF8AF0F8D78751F4
:101A50008A03F3508825896F89C001F001C00BF01B
:101A60005F503308D8B45E2AE4EF1BF0010E876F95
:101A7000BCEC04F0840EF66E010EF76EACEC04F0D4
:101A80004EEC04F001C05FF05F503108D8B45E0640
:101A90005F503208D8A452D2616B490E606F61C0AA
:101AA0007FF060C07EF0846B020E876FBCEC04F0A8
:101AB000070E8D6F95EC02F07FC0EAFF7EC0E9FF54
:101AC000D9EC04F0050E8E6F020E8F6F70EC02F0F1
:101AD0000C5209E10D5207E1E40EF66E000EF76EAE
:101AE000ACEC04F010D00CC087F0010E886FBEEC97
:101AF00002F03A0E8D6F95EC02F00DC087F0010EEA
:101B0000886FBEEC02F04EEC04F001C084F084510A
:101B10002F0807E28451320804E384C080F080512A
:101B200001D0846B8453EFE0050E8E6F020E8F6F31
:101B300070EC02F080C08DF095EC02F0EC0EF66EC9
:101B4000000EF76E040E876F39EC03F04EEC04F0D4
:101B500001C084F08051300803E0805131080BE16E
:101B600084512F0807E28451390804E384C081F0CE
:101B7000815101D0846B805132080BE184512F08D0
:101B800007E28451340804E384C081F0815101D01C
:101B9000846B8453DBE0050E8E6F020E8F6F70EC4A
:101BA00002F080C08DF095EC02F081C08DF095ECD4
:101BB00002F03A0E8D6F95EC02F04D0E8D6F95ECA4
:101BC00002F04D0E8D6F95EC02F04EEC04F001C06A
:101BD00084F084512F0807E28451350804E384C05F
:101BE00082F0825101D0846B8453EFE0050E8E6F3A
:101BF000020E8F6F70EC02F080C08DF095EC02F059
:101C000081C08DF095EC02F03A0E8D6F95EC02F0EC
:101C100082C08DF095EC02F04D0E8D6F95EC02F0C8
:101C20004EEC04F001C084F084512F0807E2845187
:101C3000350804E384C083F0835101D0846B84535E
:101C4000EFE0050E8E6F020E8F6F70EC02F080C019
:101C50008DF095EC02F081C08DF095EC02F03A0E1B
:101C60008D6F95EC02F082C08DF095EC02F083C090
:101C70008DF095EC02F0020E856FFA0E8E6F62EC1D
:101C800001F0852FFAD70A0E8A6F300E805D876FBC
:101C9000300E815D886F8A51885D05E38A510A0D97
:101CA000F3CF8AF0F8D787518A03F3508825896FDC
:101CB00089C001F001C00CF00A0E8A6F300E825DFF
:101CC000876F300E835D886F8A51885D05E38A5186
:101CD0000A0DF3CF8AF0F8D787518A03F35088258D
:101CE000896F89C001F001C00DF0616B530E606F08
:101CF00061C07FF060C07EF0846B020E876FBCEC29
:101D000004F0070E8D6F95EC02F07FC0EAFF7EC0F5
:101D1000E9FFD9EC04F0050E8E6F020E8F6F70ECA8
:101D200002F00E5209E10F5207E1E40EF66E000ECA
:101D3000F76EACEC04F010D00EC087F0010E886F87
:101D4000BEEC02F03A0E8D6F95EC02F00FC087F0FA
:101D5000010E886FBEEC02F04EEC04F001C084F07E
:101D600084512F0807E28451320804E384C080F0D4
:101D7000805101D0846B8453EFE0050E8E6F020E0C
:101D80008F6F70EC02F080C08DF095EC02F0EC0EDD
:101D9000F66E000EF76E040E876F39EC03F04EEC12
:101DA00004F001C084F08051300803E08051310814
:101DB0000BE184512F0807E28451390804E384C001
:101DC00081F0815101D0846B805132080BE1845144
:101DD0002F0807E28451340804E384C081F0815164
:101DE00001D0846B8453DBE0050E8E6F020E8F6F83
:101DF00070EC02F080C08DF095EC02F081C08DF0A7
:101E000095EC02F03A0E8D6F95EC02F04D0E8D6F51
:101E100095EC02F04D0E8D6F95EC02F04EEC04F057
:101E200001C084F084512F0807E28451350804E38F
:101E300084C082F0825101D0846B8453EFE0050EA0
:101E40008E6F020E8F6F70EC02F080C08DF095ECFB
:101E500002F081C08DF095EC02F03A0E8D6F95EC9A
:101E600002F082C08DF095EC02F04D0E8D6F95EC76
:101E700002F04EEC04F001C084F084512F0807E218
:101E80008451350804E384C083F0835101D0846B0E
:101E90008453EFE0050E8E6F020E8F6F70EC02F030
:101EA00080C08DF095EC02F081C08DF095EC02F0D1
:101EB0003A0E8D6F95EC02F082C08DF095EC02F039
:101EC00083C08DF095EC02F0020E856FFA0E8E6FD6
:101ED00062EC01F0852FFAD70A0E8A6F300E805D12
:101EE000876F300E815D886F8A51885D05E38A5166
:101EF0000A0DF3CF8AF0F8D787518A03F35088256B
:101F0000896F89C001F001C00EF00A0E8A6F300E91
:101F1000825D876F300E835D886F8A51885D05E32F
:101F20008A510A0DF3CF8AF0F8D787518A03F3500C
:101F30008825896F89C001F001C00FF05F50330818
:101F4000D8B45E2AE4EF1BF0010E876FBCEC04F0FE
:101F50008E0EF66E010EF76EACEC04F04EEC04F053
:101F600001C05FF05F503108D8B45E065F503208A0
:101F7000D8A452D2616B490E606F61C07FF060C01F
:101F80007EF0846B020E876FBCEC04F0070E8D6F41
:101F900095EC02F07FC0EAFF7EC0E9FFD9EC04F0C7
:101FA000050E8E6F020E8F6F70EC02F0105209E179
:101FB000115207E1E40EF66E000EF76EACEC04F081
:101FC00010D010C087F0010E886FBEEC02F03A0E00
:101FD0008D6F95EC02F011C087F0010E886FBEEC9A
:101FE00002F04EEC04F001C084F084512F0807E2A7
:101FF0008451320804E384C080F0805101D0846BA6
:102000008453EFE0050E8E6F020E8F6F70EC02F0BE
:1020100080C08DF095EC02F0EC0EF66E000EF76EBF
:10202000040E876F39EC03F04EEC04F001C084F02D
:102030008051300803E0805131080BE184512F08B2
:1020400007E28451390804E384C081F0815101D052
:10205000846B805132080BE184512F0807E28451D0
:10206000340804E384C081F0815101D0846B84532F
:10207000DBE0050E8E6F020E8F6F70EC02F080C0F9
:102080008DF095EC02F081C08DF095EC02F03A0EE7
:102090008D6F95EC02F04D0E8D6F95EC02F04D0EAC
:1020A0008D6F95EC02F04EEC04F001C084F0845189
:1020B0002F0807E28451350804E384C082F082517E
:1020C00001D0846B8453EFE0050E8E6F020E8F6F8C
:1020D00070EC02F080C08DF095EC02F081C08DF0C4
:1020E00095EC02F03A0E8D6F95EC02F082C08DF007
:1020F00095EC02F04D0E8D6F95EC02F04EEC04F075
:1021000001C084F084512F0807E28451350804E3AC
:1021100084C083F0835101D0846B8453EFE0050EBB
:102120008E6F020E8F6F70EC02F080C08DF095EC18
:1021300002F081C08DF095EC02F03A0E8D6F95ECB7
:1021400002F082C08DF095EC02F083C08DF095EC2A
:1021500002F0020E856FFA0E8E6F62EC01F0852F91
:10216000FAD70A0E8A6F300E805D876F300E815D60
:10217000886F8A51885D05E38A510A0DF3CF8AF092
:10218000F8D787518A03F3508825896F89C001F0F9
:1021900001C010F00A0E8A6F300E825D876F300E1C
:1021A000835D886F8A51885D05E38A510A0DF3CFFC
:1021B0008AF0F8D787518A03F3508825896F89C040
:1021C00001F001C011F0616B530E606F61C07FF0D0
:1021D00060C07EF0846B020E876FBCEC04F0070ECB
:1021E0008D6F95EC02F07FC0EAFF7EC0E9FFD9EC6D
:1021F00004F0050E8E6F020E8F6F70EC02F012521B
:1022000009E1135207E1E40EF66E000EF76EACEC36
:1022100004F010D012C087F0010E886FBEEC02F0FF
:102220003A0E8D6F95EC02F013C087F0010E886FA7
:10223000BEEC02F04EEC04F001C084F084512F0893
:1022400007E28451320804E384C080F0805101D059
:10225000846B8453EFE0050E8E6F020E8F6F70EC6F
:1022600002F080C08DF095EC02F0EC0EF66E000EE0
:10227000F76E040E876F39EC03F04EEC04F001C0EA
:1022800084F08051300803E0805131080BE1845123
:102290002F0807E28451390804E384C081F081519A
:1022A00001D0846B805132080BE184512F0807E282
:1022B0008451340804E384C081F0815101D0846BDF
:1022C0008453DBE0050E8E6F020E8F6F70EC02F010
:1022D00080C08DF095EC02F081C08DF095EC02F09D
:1022E0003A0E8D6F95EC02F04D0E8D6F95EC02F06D
:1022F0004D0E8D6F95EC02F04EEC04F001C084F0B1
:1023000084512F0807E28451350804E384C082F029
:10231000825101D0846B8453EFE0050E8E6F020E64
:102320008F6F70EC02F080C08DF095EC02F081C0F0
:102330008DF095EC02F03A0E8D6F95EC02F082C0B4
:102340008DF095EC02F04D0E8D6F95EC02F04EEC99
:1023500004F001C084F084512F0807E2845135084D
:1023600004E384C083F0835101D0846B8453EFE095
:10237000050E8E6F020E8F6F70EC02F080C08DF034
:1023800095EC02F081C08DF095EC02F03A0E8D6F65
:1023900095EC02F082C08DF095EC02F083C08DF0D8
:1023A00095EC02F0020E856FFA0E8E6F62EC01F072
:1023B000852FFAD70A0E8A6F300E805D876F300E38
:1023C000815D886F8A51885D05E38A510A0DF3CFDC
:1023D0008AF0F8D787518A03F3508825896F89C01E
:1023E00001F001C012F00A0E8A6F300E825D876F15
:1023F000300E835D886F8A51885D05E38A510A0D2E
:10240000F3CF8AF0F8D787518A03F3508825896F74
:1024100089C001F001C013F05F503308D8B45E2AC0
:10242000E4EF1BF0010E876FBCEC04F09C0EF66E1F
:10243000010EF76EACEC04F04EEC04F001C05FF05E
:102440005F503108D8B45E065F503208D8A452D22B
:10245000616B490E606F61C07FF060C07EF0846B7D
:10246000020E876FBCEC04F0070E8D6F95EC02F046
:102470007FC0EAFF7EC0E9FFD9EC04F0050E8E6F45
:10248000020E8F6F70EC02F0145209E1155207E151
:10249000E40EF66E000EF76EACEC04F010D014C033
:1024A00087F0010E886FBEEC02F03A0E8D6F95EC4E
:1024B00002F015C087F0010E886FBEEC02F04EEC02
:1024C00004F001C084F084512F0807E284513208DF
:1024D00004E384C080F0805101D0846B8453EFE02A
:1024E000050E8E6F020E8F6F70EC02F080C08DF0C3
:1024F00095EC02F0EC0EF66E000EF76E040E876F90
:1025000039EC03F04EEC04F001C084F08051300847
:1025100003E0805131080BE184512F0807E2845118
:10252000390804E384C081F0815101D0846B80516B
:1025300032080BE184512F0807E28451340804E388
:1025400084C081F0815101D0846B8453DBE0050E9F
:102550008E6F020E8F6F70EC02F080C08DF095ECE4
:1025600002F081C08DF095EC02F03A0E8D6F95EC83
:1025700002F04D0E8D6F95EC02F04D0E8D6F95ECC7
:1025800002F04EEC04F001C084F084512F0807E201
:102590008451350804E384C082F0825101D0846BF9
:1025A0008453EFE0050E8E6F020E8F6F70EC02F019
:1025B00080C08DF095EC02F081C08DF095EC02F0BA
:1025C0003A0E8D6F95EC02F082C08DF095EC02F022
:1025D0004D0E8D6F95EC02F04EEC04F001C084F0CE
:1025E00084512F0807E28451350804E384C083F046
:1025F000835101D0846B8453EFE0050E8E6F020E81
:102600008F6F70EC02F080C08DF095EC02F081C00D
:102610008DF095EC02F03A0E8D6F95EC02F082C0D1
:102620008DF095EC02F083C08DF095EC02F0020E77
:10263000856FFA0E8E6F62EC01F0852FFAD70A0EC5
:102640008A6F300E805D876F300E815D886F8A5192
:10265000885D05E38A510A0DF3CF8AF0F8D78751D8
:102660008A03F3508825896F89C001F001C014F0F6
:102670000A0E8A6F300E825D876F300E835D886F21
:102680008A51885D05E38A510A0DF3CF8AF0F8D7A5
:1026900087518A03F3508825896F89C001F001C0F2
:1026A00015F0616B530E606F61C07FF060C07EF00B
:1026B000846B020E876FBCEC04F0070E8D6F95ECF7
:1026C00002F07FC0EAFF7EC0E9FFD9EC04F0050EFE
:1026D0008E6F020E8F6F70EC02F0165209E11752E6
:1026E00007E1E40EF66E000EF76EACEC04F010D0CD
:1026F00016C087F0010E886FBEEC02F03A0E8D6FA7
:1027000095EC02F017C087F0010E886FBEEC02F066
:102710004EEC04F001C084F084512F0807E284518C
:10272000320804E384C080F0805101D0846B84536C
:10273000EFE0050E8E6F020E8F6F70EC02F080C01E
:102740008DF095EC02F0EC0EF66E000EF76E040EB6
:10275000876F39EC03F04EEC04F001C084F0805137
:10276000300803E0805131080BE184512F0807E263
:102770008451390804E384C081F0815101D0846B15
:10278000805132080BE184512F0807E2845134084C
:1027900004E384C081F0815101D0846B8453DBE079
:1027A000050E8E6F020E8F6F70EC02F080C08DF000
:1027B00095EC02F081C08DF095EC02F03A0E8D6F31
:1027C00095EC02F04D0E8D6F95EC02F04D0E8D6F75
:1027D00095EC02F04EEC04F001C084F084512F0817
:1027E00007E28451350804E384C082F0825101D0AD
:1027F000846B8453EFE0050E8E6F020E8F6F70ECCA
:1028000002F080C08DF095EC02F081C08DF095EC67
:1028100002F03A0E8D6F95EC02F082C08DF095ECCF
:1028200002F04D0E8D6F95EC02F04EEC04F001C0FD
:1028300084F084512F0807E28451350804E384C0F2
:1028400083F0835101D0846B8453EFE0050E8E6FCB
:10285000020E8F6F70EC02F080C08DF095EC02F0EC
:1028600081C08DF095EC02F03A0E8D6F95EC02F080
:1028700082C08DF095EC02F083C08DF095EC02F0F3
:10288000020E856FFA0E8E6F62EC01F0852FFAD77B
:102890000A0E8A6F300E805D876F300E815D886F03
:1028A0008A51885D05E38A510A0DF3CF8AF0F8D783
:1028B00087518A03F3508825896F89C001F001C0D0
:1028C00016F00A0E8A6F300E825D876F300E835DC0
:1028D000886F8A51885D05E38A510A0DF3CF8AF02B
:1028E000F8D787518A03F3508825896F89C001F092
:1028F00001C017F05F503308D8B45E2AE4EF1BF034
:10290000010E876FBCEC04F0A60EF66E010EF76E9A
:10291000ACEC04F04EEC04F001C05FF05F50310805
:10292000D8B45E065F503208D8A452D2616B490E0B
:10293000606F61C07FF060C07EF0846B020E876FB5
:10294000BCEC04F0070E8D6F95EC02F07FC0EAFF3F
:102950007EC0E9FFD9EC04F0050E8E6F020E8F6F7A
:1029600070EC02F0185209E1195207E1E40EF66E1C
:10297000000EF76EACEC04F010D018C087F0010E1A
:10298000886FBEEC02F03A0E8D6F95EC02F019C024
:1029900087F0010E886FBEEC02F04EEC04F001C02F
:1029A00084F084512F0807E28451320804E384C084
:1029B00080F0805101D0846B8453EFE0050E8E6F60
:1029C000020E8F6F70EC02F080C08DF095EC02F07B
:1029D000EC0EF66E000EF76E040E876F39EC03F006
:1029E0004EEC04F001C084F08051300803E08051C7
:1029F00031080BE184512F0807E28451390804E3C0
:102A000084C081F0815101D0846B805132080BE188
:102A100084512F0807E28451340804E384C081F014
:102A2000815101D0846B8453DBE0050E8E6F020E62
:102A30008F6F70EC02F080C08DF095EC02F081C0D9
:102A40008DF095EC02F03A0E8D6F95EC02F04D0E84
:102A50008D6F95EC02F04D0E8D6F95EC02F04EEC03
:102A600004F001C084F084512F0807E28451350836
:102A700004E384C082F0825101D0846B8453EFE080
:102A8000050E8E6F020E8F6F70EC02F080C08DF01D
:102A900095EC02F081C08DF095EC02F03A0E8D6F4E
:102AA00095EC02F082C08DF095EC02F04D0E8D6F2A
:102AB00095EC02F04EEC04F001C084F084512F0834
:102AC00007E28451350804E384C083F0835101D0C8
:102AD000846B8453EFE0050E8E6F020E8F6F70ECE7
:102AE00002F080C08DF095EC02F081C08DF095EC85
:102AF00002F03A0E8D6F95EC02F082C08DF095ECED
:102B000002F083C08DF095EC02F0020E856FFA0E94
:102B10008E6F62EC01F0852FFAD70A0E8A6F300EA5
:102B2000805D876F300E815D886F8A51885D05E317
:102B30008A510A0DF3CF8AF0F8D787518A03F350F0
:102B40008825896F89C001F001C018F00A0E8A6FCC
:102B5000300E825D876F300E835D886F8A51885D8D
:102B600005E38A510A0DF3CF8AF0F8D787518A031B
:102B7000F3508825896F89C001F001C019F0616B9D
:102B8000530E606F61C07FF060C07EF0846B020EF8
:102B9000876FBCEC04F0070E8D6F95EC02F07FC0E0
:102BA000EAFF7EC0E9FFD9EC04F0050E8E6F020E3D
:102BB0008F6F70EC02F01A5209E11B5207E1E40E2C
:102BC000F66E000EF76EACEC04F010D01AC087F071
:102BD000010E886FBEEC02F03A0E8D6F95EC02F09C
:102BE0001BC087F0010E886FBEEC02F04EEC04F0C3
:102BF00001C084F084512F0807E28451320804E3B5
:102C000084C080F0805101D0846B8453EFE0050EC6
:102C10008E6F020E8F6F70EC02F080C08DF095EC1D
:102C200002F0EC0EF66E000EF76E040E876F39ECB4
:102C300003F04EEC04F001C084F08051300803E052
:102C4000805131080BE184512F0807E28451390883
:102C500004E384C081F0815101D0846B805132083B
:102C60000BE184512F0807E28451340804E384C047
:102C700081F0815101D0846B8453DBE0050E8E6FAF
:102C8000020E8F6F70EC02F080C08DF095EC02F0B8
:102C900081C08DF095EC02F03A0E8D6F95EC02F04C
:102CA0004D0E8D6F95EC02F04D0E8D6F95EC02F090
:102CB0004EEC04F001C084F084512F0807E28451E7
:102CC000350804E384C082F0825101D0846B8453C0
:102CD000EFE0050E8E6F020E8F6F70EC02F080C079
:102CE0008DF095EC02F081C08DF095EC02F03A0E7B
:102CF0008D6F95EC02F082C08DF095EC02F04D0ED8
:102D00008D6F95EC02F04EEC04F001C084F084511C
:102D10002F0807E28451350804E384C083F083510F
:102D200001D0846B8453EFE0050E8E6F020E8F6F1F
:102D300070EC02F080C08DF095EC02F081C08DF057
:102D400095EC02F03A0E8D6F95EC02F082C08DF09A
:102D500095EC02F083C08DF095EC02F0020E856FC9
:102D6000FA0E8E6F62EC01F0852FFAD70A0E8A6F89
:102D7000300E805D876F300E815D886F8A51885D6F
:102D800005E38A510A0DF3CF8AF0F8D787518A03F9
:102D9000F3508825896F89C001F001C01AF00A0E2E
:102DA0008A6F300E825D876F300E835D886F8A5127
:102DB000885D05E38A510A0DF3CF8AF0F8D7875171
:102DC0008A03F3508825896F89C001F001C01BF088
:102DD0005F503308D8B45E2AE4EF1BF0010E876F12
:102DE000BCEC04F0B20EF66E010EF76EACEC04F023
:102DF0004EEC04F001C05FF05F503108D8B45E06BD
:102E00005F503208D8A452D2616B490E606F61C026
:102E10007FF060C07EF0846B020E876FBCEC04F024
:102E2000070E8D6F95EC02F07FC0EAFF7EC0E9FFD0
:102E3000D9EC04F0050E8E6F020E8F6F70EC02F06D
:102E40001C5209E11D5207E1E40EF66E000EF76E0A
:102E5000ACEC04F010D01CC087F0010E886FBEEC03
:102E600002F03A0E8D6F95EC02F01DC087F0010E56
:102E7000886FBEEC02F04EEC04F001C084F0845187
:102E80002F0807E28451320804E384C080F08051A7
:102E900001D0846B8453EFE0050E8E6F020E8F6FAE
:102EA00070EC02F080C08DF095EC02F0EC0EF66E46
:102EB000000EF76E040E876F39EC03F04EEC04F051
:102EC00001C084F08051300803E0805131080BE1EB
:102ED00084512F0807E28451390804E384C081F04B
:102EE000815101D0846B805132080BE184512F084D
:102EF00007E28451340804E384C081F0815101D099
:102F0000846B8453DBE0050E8E6F020E8F6F70ECC6
:102F100002F080C08DF095EC02F081C08DF095EC50
:102F200002F03A0E8D6F95EC02F04D0E8D6F95EC20
:102F300002F04D0E8D6F95EC02F04EEC04F001C0E6
:102F400084F084512F0807E28451350804E384C0DB
:102F500082F0825101D0846B8453EFE0050E8E6FB6
:102F6000020E8F6F70EC02F080C08DF095EC02F0D5
:102F700081C08DF095EC02F03A0E8D6F95EC02F069
:102F800082C08DF095EC02F04D0E8D6F95EC02F045
:102F90004EEC04F001C084F084512F0807E2845104
:102FA000350804E384C083F0835101D0846B8453DB
:102FB000EFE0050E8E6F020E8F6F70EC02F080C096
:102FC0008DF095EC02F081C08DF095EC02F03A0E98
:102FD0008D6F95EC02F082C08DF095EC02F083C00D
:102FE0008DF095EC02F0020E856FFA0E8E6F62EC9A
:102FF00001F0852FFAD70A0E8A6F300E805D876F39
:10300000300E815D886F8A51885D05E38A510A0D13
:10301000F3CF8AF0F8D787518A03F3508825896F58
:1030200089C001F001C01CF00A0E8A6F300E825D6B
:10303000876F300E835D886F8A51885D05E38A5102
:103040000A0DF3CF8AF0F8D787518A03F350882509
:10305000896F89C001F001C01DF0616B530E606F74
:1030600061C07FF060C07EF0846B020E876FBCECA5
:1030700004F0070E8D6F95EC02F07FC0EAFF7EC072
:10308000E9FFD9EC04F0050E8E6F020E8F6F70EC25
:1030900002F01E5209E11F5207E1E40EF66E000E27
:1030A000F76EACEC04F010D01EC087F0010E886FF4
:1030B000BEEC02F03A0E8D6F95EC02F01FC087F067
:1030C000010E886FBEEC02F04EEC04F001C084F0FB
:1030D00084512F0807E28451320804E384C080F051
:1030E000805101D0846B8453EFE0050E8E6F020E89
:1030F0008F6F70EC02F080C08DF095EC02F0EC0E5A
:10310000F66E000EF76E040E876F39EC03F04EEC8E
:1031100004F001C084F08051300803E08051310890
:103120000BE184512F0807E28451390804E384C07D
:1031300081F0815101D0846B805132080BE18451C0
:103140002F0807E28451340804E384C081F08151E0
:1031500001D0846B8453DBE0050E8E6F020E8F6FFF
:1031600070EC02F080C08DF095EC02F081C08DF023
:1031700095EC02F03A0E8D6F95EC02F04D0E8D6FCE
:1031800095EC02F04D0E8D6F95EC02F04EEC04F0D4
:1031900001C084F084512F0807E28451350804E30C
:1031A00084C082F0825101D0846B8453EFE0050E1D
:1031B0008E6F020E8F6F70EC02F080C08DF095EC78
:1031C00002F081C08DF095EC02F03A0E8D6F95EC17
:1031D00002F082C08DF095EC02F04D0E8D6F95ECF3
:1031E00002F04EEC04F001C084F084512F0807E295
:1031F0008451350804E384C083F0835101D0846B8B
:103200008453EFE0050E8E6F020E8F6F70EC02F0AC
:1032100080C08DF095EC02F081C08DF095EC02F04D
:103220003A0E8D6F95EC02F082C08DF095EC02F0B5
:1032300083C08DF095EC02F0020E856FFA0E8E6F52
:1032400062EC01F0852FFAD70A0E8A6F300E805D8E
:10325000876F300E815D886F8A51885D05E38A51E2
:103260000A0DF3CF8AF0F8D787518A03F3508825E7
:10327000896F89C001F001C01EF00A0E8A6F300EFE
:10328000825D876F300E835D886F8A51885D05E3AC
:103290008A510A0DF3CF8AF0F8D787518A03F35089
:1032A0008825896F89C001F001C01FF05F50330885
:1032B000D8B45E2A89D2010E876FBCEC04F0BC0E34
:1032C000F66E010EF76EACEC04F04EEC04F001C0AB
:1032D0005FF05F503108D8B45E065F503208D8A462
:1032E00052D2616B490E606F61C07FF060C07EF0AA
:1032F000846B020E876FBCEC04F0070E8D6F95ECAB
:1033000002F07FC0EAFF7EC0E9FFD9EC04F0050EB1
:103310008E6F020E8F6F70EC02F0205209E1215285
:1033200007E1E40EF66E000EF76EACEC04F010D080
:1033300020C087F0010E886FBEEC02F03A0E8D6F50
:1033400095EC02F021C087F0010E886FBEEC02F010
:103350004EEC04F001C084F084512F0807E2845140
:10336000320804E384C080F0805101D0846B845320
:10337000EFE0050E8E6F020E8F6F70EC02F080C0D2
:103380008DF095EC02F0EC0EF66E000EF76E040E6A
:10339000876F39EC03F04EEC04F001C084F08051EB
:1033A000300803E0805131080BE184512F0807E217
:1033B0008451390804E384C081F0815101D0846BC9
:1033C000805132080BE184512F0807E28451340800
:1033D00004E384C081F0815101D0846B8453DBE02D
:1033E000050E8E6F020E8F6F70EC02F080C08DF0B4
:1033F00095EC02F081C08DF095EC02F03A0E8D6FE5
:1034000095EC02F04D0E8D6F95EC02F04D0E8D6F28
:1034100095EC02F04EEC04F001C084F084512F08CA
:1034200007E28451350804E384C082F0825101D060
:10343000846B8453EFE0050E8E6F020E8F6F70EC7D
:1034400002F080C08DF095EC02F081C08DF095EC1B
:1034500002F03A0E8D6F95EC02F082C08DF095EC83
:1034600002F04D0E8D6F95EC02F04EEC04F001C0B1
:1034700084F084512F0807E28451350804E384C0A6
:1034800083F0835101D0846B8453EFE0050E8E6F7F
:10349000020E8F6F70EC02F080C08DF095EC02F0A0
:1034A00081C08DF095EC02F03A0E8D6F95EC02F034
:1034B00082C08DF095EC02F083C08DF095EC02F0A7
:1034C000020E856FFA0E8E6F62EC01F0852FFAD72F
:1034D0000A0E8A6F300E805D876F300E815D886FB7
:1034E0008A51885D05E38A510A0DF3CF8AF0F8D737
:1034F00087518A03F3508825896F89C001F001C084
:1035000020F00A0E8A6F300E825D876F300E835D69
:10351000886F8A51885D05E38A510A0DF3CF8AF0DE
:10352000F8D787518A03F3508825896F89C001F045
:1035300001C021F0616B530E606F61C07FF060C00D
:103540007EF0846B020E876FBCEC04F0070E8D6F6B
:1035500095EC02F07FC0EAFF7EC0E9FFD9EC04F0F1
:10356000050E8E6F020E8F6F70EC02F0225209E191
:10357000235207E1E40EF66E000EF76EACEC04F099
:1035800010D022C087F0010E886FBEEC02F03A0E18
:103590008D6F95EC02F023C087F0010E886FBEECB2
:1035A00002F04EEC04F001C084F084512F0807E2D1
:1035B0008451320804E384C080F0805101D0846BD0
:1035C0008453EFE0050E8E6F020E8F6F70EC02F0E9
:1035D00080C08DF095EC02F0EC0EF66E000EF76EEA
:1035E000040E876F39EC03F04EEC04F001C084F058
:1035F0008051300803E0805131080BE184512F08DD
:1036000007E28451390804E384C081F0815101D07C
:10361000846B805132080BE184512F0807E28451FA
:10362000340804E384C081F0815101D0846B845359
:10363000DBE0050E8E6F020E8F6F70EC02F080C023
:103640008DF095EC02F081C08DF095EC02F03A0E11
:103650008D6F95EC02F04D0E8D6F95EC02F04D0ED6
:103660008D6F95EC02F04EEC04F001C084F08451B3
:103670002F0807E28451350804E384C082F08251A8
:1036800001D0846B8453EFE0050E8E6F020E8F6FB6
:1036900070EC02F080C08DF095EC02F081C08DF0EE
:1036A00095EC02F03A0E8D6F95EC02F082C08DF031
:1036B00095EC02F04D0E8D6F95EC02F04EEC04F09F
:1036C00001C084F084512F0807E28451350804E3D7
:1036D00084C083F0835101D0846B8453EFE0050EE6
:1036E0008E6F020E8F6F70EC02F080C08DF095EC43
:1036F00002F081C08DF095EC02F03A0E8D6F95ECE2
:1037000002F082C08DF095EC02F083C08DF095EC54
:1037100002F0020E856FFA0E8E6F62EC01F0852FBB
:10372000FAD70A0E8A6F300E805D876F300E815D8A
:10373000886F8A51885D05E38A510A0DF3CF8AF0BC
:10374000F8D787518A03F3508825896F89C001F023
:1037500001C022F00A0E8A6F300E825D876F300E34
:10376000835D886F8A51885D05E38A510A0DF3CF26
:103770008AF0F8D787518A03F3508825896F89C06A
:1037800001F001C023F05F503308D8B45E2A1CD08A
:10379000010E876FBCEC04F0C80EF66E010EF76EDA
:1037A000ACEC04F04EEC04F001C05FF05F50310867
:1037B000D8B45E065F503208D8B45E6A5F503308F2
:1037C00002E1010E5E6E00D0A3EF0AF0010E7C6FE5
:1037D0007E6B080E7D6F25EF09F02C503308D8B4AE
:1037E0002B2A1CD0010E876FBCEC04F0080EF66E7D
:1037F000020EF76EACEC04F04EEC04F001C02CF0BD
:103800002C503108D8B42B062C503208D8B42B6A6F
:103810002C50330802E1010E2B6E00D028EF0AF085
:0E382000020E876FBCEC04F09BEF09F0030072
:020000040030CA
:0E0000003FC8390E0087A1000FC00FE00F406F
:00000001FF
;PIC18F4550
;CRC=22EC  CREATED="08-mar-17 22:03"
