:1000000041EF06F0F76A140FF66E000EF7220900B2
:10001000F55012003132333435363738392A30232F
:10002000F76A300FF66E000EF7220900F550120045
:10003000280C010620202020202020202020202005
:1000400020202020000020202020202020202020F0
:100050002020202020200000253032642F2530323F
:10006000642F2530326420444F4D00002530326427
:100070002F253032642F25303264204C554E00003D
:10008000253032642F253032642F25303264204DE4
:1000900041520000253032642F253032642F253044
:1000A0003264204D49450000253032642F2530321E
:1000B000642F25303264204A5545000025303264D3
:1000C0002F253032642F25303264205649450000F8
:1000D000253032642F253032642F2530326420538E
:1000E0004142000048483A4D4D002563483A4D4D85
:1000F00000003C202020656E7465722020203E00A8
:10010000072D434F4E46494720484F55522D00007A
:10011000072D434F4E46494720444154452D00008A
:10012000072D455849542D003C202020656E7465EC
:10013000722020203E00072D4C554E45532D0000C7
:10014000072D4D41525445532D00072D4D49455221
:10015000434F4C45532D0000072D4A5545564553F6
:100160002D00072D564945524E45532D0000072DB1
:1001700053414241444F2D00072D444F4D494E47B6
:100180004F2D0000072D4558495420434F4E4649F6
:10019000472D00003C202020656E746572202020D1
:1001A0003E00072D434F4E4649472052454C4F4A8B
:1001B0002D00072D434F4E464947204F4E2F4F46A7
:1001C000462D0000072D455849542D007CEF06F0C0
:1001D000176A175007080DE3D890163202E2899487
:1001E00001D0898492949292898292928992172A5C
:1001F000F0D7000C9290898010C016F0E9DF11C092
:1002000016F0E6DF92908990000C9290898013C0DE
:1002100016F0DEDF92840000146A145007080FE322
:10022000928480B402D0D89001D0D88015329292B6
:10023000898200D09292899200D0142AEED79290AF
:10024000899015C001F0000C9290899000D0929294
:1002500089928E0E106E116ACDDF900E106EA40E74
:10026000116EC8DF810E136ED0DF01C00FF00F508A
:10027000800B04E0800E106E116ABCDF7EEF06F08A
:10028000EA6A220EE96EEF500EE0010E016E006A7E
:10029000002EFED7012EFBD74A0E006E002EFED791
:1002A00000D0EF2EF2D7000C29B002D08A9801D0EE
:1002B0008A88939829B202D08A9A01D08A8A939A1E
:1002C00029B402D08A9C01D08A8C939C29B602D092
:1002D0008A9E01D08A8E939E00008A82939200D0DB
:1002E0008A929392000C2A6A9388000E81B8010EBC
:1002F0002A12938A000E81BA010E006ED890003641
:1003000000502A12938C000E81BC010E006E003644
:100310000036FC0E001600502A12938E000E81BE8D
:10032000010E006E003600360036F80E0016005042
:100330002A122AC001F0000C9388938A938C938E22
:100340008A86939600008A8293920000CCDF01C0D7
:1003500029F08A92939200008A8293920000C3DF70
:1003600001C028F08A9293929398939A939C939EBB
:100370002938006EF00E001600502810016EC7EFED
:1003800001F09392939493968A949394D5D701C055
:1003900028F001BEFBD7265202E18A9401D08A845C
:1003A000939400008A96939600008A92939227383D
:1003B000286E0F0E281628C029F076DF27500F0B65
:1003C000286E296E71DF000C9398939A939C939EEC
:1003D0009392939493968A9493948A9693968A92FE
:1003E00093920F0E226E4CDF010E0F6E0F5003081A
:1003F00008E3030E296E58DF050E226E41DF0F2A37
:10040000F5D7020E296E50DF0F6A0F50030809E37B
:10041000036A0F5005DE106E266A276EB2DF0F2AC0
:10042000F4D780EF06F014C015F01538006E0F0EEB
:10043000001600500A0DF3CF14F01538006EF00EC0
:1004400000160050003A0F0E00160050142614C07B
:1004500001F0000C232C01D003D0400E246E01D0FB
:10046000246A010E225C242624508009256E266A07
:10047000276E87DF000C1A50016A195C03E219C06D
:1004800000F00CD0006A080E1B6E193600361A50A8
:10049000005CD8B0006E01361B2EF7D7000C21503F
:1004A000070A07E00B0A0AE0060A10E0020A14E055
:1004B00018D0010E226E236ECDDF19D0266A010EF0
:1004C000276E5FDF020E226EDBDE11D0010E226E80
:1004D000020E236EBFDF0BD0266A100E276E51DF8F
:1004E00006D0010E266E21C027F04BDF00D0000C95
:1004F000200E14A8300E156E13C000F013AE07D0F6
:10050000001E002A00C013F02D0E156E148E01502F
:1005100013C019F0640E1A6EAEDF00C013F0300E77
:100520000124166E13C019F00A0E1A6EA4DF300EE5
:100530000024186E300E0124176E15C000F014A6AA
:1005400002D014AE149414B80BD014AE22D014B44C
:1005500020D000C016F014B21CD000C017F019D083
:10056000300E165C16E100C016F0200E156E14A6B3
:1005700004D01494148214AE1492300E175C09E166
:1005800000C017F0200E166E14A6F7D7149214AE02
:10059000149014A403D015C021F081DF14A203D05D
:1005A00016C021F07CDF14A003D017C021F077DF44
:1005B00018C021F074DF000C0FC013F0010E146E90
:1005C00097DF3A0E216E6BDF10C013F0010E146E30
:1005D0008FDF3A0E216E63DF11C013F0010E146E2F
:1005E00087DFE2EF06F00900F6CF14F0F7CF15F041
:1005F000F5CF21F054DF14C0F6FF15C0F7FF132E1E
:10060000F2D7000C010E125CF90FD8B0CED0070F54
:10061000D7EF03F00FC013F0010E146E69DF2F0E39
:10062000216E3DDF10C013F0010E146E61DF2F0E3E
:10063000216E35DF11C013F0010E146E59DF660E06
:10064000F66E000EF76E040E136ECDDFAED00FC047
:1006500013F0010E146E4CDF2F0E216E20DF10C040
:1006600013F0010E146E44DF2F0E216E18DF11C03F
:1006700013F0010E146E3CDF7A0EF66E000EF76E6C
:10068000040E136EB0DF91D00FC013F0010E146E84
:100690002FDF2F0E216E03DF10C013F0010E146E3A
:1006A00027DF2F0E216EFBDE11C013F0010E146E3A
:1006B0001FDF8E0EF66E000EF76E040E136E93DFC4
:1006C00074D00FC013F0010E146E12DF2F0E216EC6
:1006D000E6DE10C013F0010E146E0ADF2F0E216E3D
:1006E000DEDE11C013F0010E146E02DFA20EF66EF4
:1006F000000EF76E040E136E76DF57D00FC013F0A6
:10070000010E146EF5DE2F0E216EC9DE10C013F03F
:10071000010E146EEDDE2F0E216EC1DE11C013F03E
:10072000010E146EE5DEB60EF66E000EF76E040EC8
:10073000136E59DF3AD00FC013F0010E146ED8DEDD
:100740002F0E216EACDE10C013F0010E146ED0DE41
:100750002F0E216EA4DE11C013F0010E146EC8DE40
:10076000CA0EF66E000EF76E040E136E3CDF1DD03F
:100770000FC013F0010E146EBBDE2F0E216E8FDE44
:1007800010C013F0010E146EB3DE2F0E216E87DE43
:1007900011C013F0010E146EABDEDE0EF66E000E0D
:1007A000F76E040E136E1FDF00D0F1EF06F0E824A1
:1007B000F76AF736C90FF66E070EF7220A00F550F2
:1007C000FA6E0800F550F96E14064E068806C20649
:1007D000FC06360770079580000E83B0010E206E70
:1007E0009582000E83B2010E20169584000E83B40C
:1007F000010E20169586000E83B6010E201404E02B
:10080000000E016E04D003D0010E016E00D0000C6A
:100810001E6A042A0450210856E2075005E0010A26
:100820000AE0030A0FE015D095988C98959A8C8A67
:10083000959C8C8C0ED095988C88959A8C9A959CCA
:100840008C8C07D095988C88959A8C8A959C8C9CDA
:1008500000D005A008D0BFDF015204E1059006C01A
:100860001EF0066A2FD0B7DF015227E0958083B0D3
:1008700002D01F6A11D0958283B203D0010E1F6E81
:100880000BD0958483B403D0020E1F6E05D09586DD
:1008900083B602D0030E1F6E1F50030DF350216A62
:1008A000206E036A07502024016E2150032201505C
:1008B00002EC00F0066E058005D0072A07500308F9
:1008C00001E1076A046A1EC001F0000C0900F5523C
:1008D0000CE0F6CF1FF0F7CF20F0F5CF21F0DFDDF1
:1008E0001FC0F6FF20C0F7FFF1D7000C1E2C01D06F
:1008F00003D01E50020809E1010E226E236EAADD0C
:10090000340EF66E000EF76EE1DF1E5002080AE1AB
:10091000010E226E020E236E9DDD460EF66E000E57
:10092000F76ED4DF000C020E1E6EE0DF010E116EBA
:10093000020E226E236E8EDDF20EF66E000EF76E44
:10094000C5DF115260E01150010A05E0030A2DE0F5
:10095000010A3FE057D04E0E136E550E146E450E31
:10096000156E560E166E410E176E200E186E480E3E
:10097000196E4F0E1A6E520E1B6E410E1C6E1D6AC2
:10098000010E1E6EB3DF000EF66E010EF76E9EDFD7
:100990003FDF01C012F01250310802E1030E116E68
:1009A00012503308D8B4112A2DD0010E1E6E9EDFCE
:1009B000100EF66E010EF76E89DF2ADF01C012F00D
:1009C00012503108D8B4110612503308D8B4112A85
:1009D00019D0010E1E6E8ADF200EF66E010EF76E24
:1009E00075DF16DF01C012F012503108D8B41106BD
:1009F00012503208D8B4116A1250330802E1010EC5
:100A0000116E00D09ED708EF06F0020E1E6E6EDF4C
:100A1000010E116E020E226E236E1CDD280EF66E84
:100A2000010EF76E53DF1152D8B4AFD0010E115C36
:100A3000F80FD8B0A9D0080FC7EF05F0010E1E6E51
:100A400055DF360EF66E010EF76E40DFE1DE01C0B7
:100A500012F01250310802E1080E116E12503308E4
:100A6000D8B4112A91D0010E1E6E40DF400EF66EF2
:100A7000010EF76E2BDFCCDE01C012F012503108F0
:100A8000D8B4110612503308D8B4112A7DD0010E03
:100A90001E6E2CDF4A0EF66E010EF76E17DFB8DE03
:100AA00001C012F012503108D8B4110612503308A8
:100AB000D8B4112A69D0010E1E6E18DF580EF66EDA
:100AC000010EF76E03DFA4DE01C012F012503108F0
:100AD000D8B4110612503308D8B4112A55D0010EDB
:100AE0001E6E04DF620EF66E010EF76EEFDE90DE14
:100AF00001C012F012503108D8B411061250330858
:100B0000D8B4112A41D0010E1E6EF0DE6E0EF66EC4
:100B1000010EF76EDBDE7CDE01C012F012503108F0
:100B2000D8B4110612503308D8B4112A2DD0010EB2
:100B30001E6EDCDE780EF66E010EF76EC7DE68DE26
:100B400001C012F012503108D8B411061250330807
:100B5000D8B4112A19D0010E1E6EC8DE840EF66EAE
:100B6000010EF76EB3DE54DE01C012F012503108F0
:100B7000D8B4110612503208D8B4116A1250330892
:100B800002E1010E116E00D04ED720EF06F0E824EE
:100B9000F76AF736A90FF66E0B0EF7220A00F5502A
:100BA000FA6E0800F550F96E3C0A660A8E0AB60A1B
:100BB000DE0A060B2E0B560B020E1E6E97DE010E82
:100BC0000F6E020E226E236E45DC940EF66E010E41
:100BD000F76E7CDE0F5253E00F50010A05E0030A66
:100BE0001CE0010A32E04AD0010E1E6E7FDEA20E2A
:100BF000F66E010EF76E6ADE0BDE01C010F01050CB
:100C0000310802E1030E0F6E1050320801E18BD65D
:100C100010503308D8B40F2A31D0010E1E6E66DE94
:100C2000B20EF66E010EF76E51DEF2DD01C010F06D
:100C300010503108D8B40F061050320801E1E5D643
:100C400010503308D8B40F2A19D0010E1E6E4EDE94
:100C5000C40EF66E010EF76E39DEDADD01C010F05B
:100C600010503108D8B40F0610503208D8B40F6AAB
:100C70001050330802E1010E0F6E00D0ABD7F9EF30
:100C800006F0F86AD09EEA6AE96A600ED36ED35025
:100C9000C150C00B0F09C16E070EB46E046A0590F7
:100CA000066A076AC150C00B0F09C16EC090C0929E
:100CB000C094C09EC280C69A949E93809392010E67
:100CC000C66E000EC76ED190800ED56ECD6A000E36
:100CD000CA6E000ECB6EB16A9484BD6AB76AB66AFA
:100CE000070EB46E9250926E030E006E002EFED769
:100CF000B450A19CE6EF00F024EF01F0E4EF01F026
:100D0000850E136E05EC01F001C00FF001C014F068
:100D100013EC02F001C008F0830E136E05EC01F035
:100D200001C00FF001C014F013EC02F001C009F093
:100D3000810E136E05EC01F001C00FF001C014F03C
:100D400013EC02F001C00AF0870E136E05EC01F0FF
:100D500001C00FF001C014F013EC02F001C00BF061
:100D6000890E136E05EC01F001C00FF001C014F004
:100D700013EC02F001C00CF08D0E136E05EC01F0C7
:100D800001C00FF001C014F013EC02F001C00DF02F
:100D90008B0E136E05EC01F001C00FF001C014F0D2
:100DA00013EC02F001C00EF0050E226E010E236E50
:100DB0002AEC02F008C00FF009C010F00AC011F0D0
:100DC000DCEF02F0030E226E020E236E2AEC02F01C
:100DD0000BC00FF00CC010F00DC011F00EC012F0DF
:100DE00011D4070E216E4FEC02F012DD015204E027
:0C0DF000E3D6020E1E6E7ADD83D70300EE
:020000040030CA
:0E0000003FC8390E0087A1000FC00FE00F406F
:00000001FF
;PIC18F4550
;CRC=BE26  CREATED="25-feb-17 22:03"
