:10000000F7EF08F0F76A140FF66E000EF7220900FA
:10001000F55012003132333435363738392A30232F
:10002000F76A300FF66E000EF7220900F550120045
:10003000280C010620202020202020202020202005
:1000400020202020000020202020202020202020F0
:100050002020202020200000253032642F2530323F
:10006000642F2530326420444F4D00002530326427
:100070002F253032642F25303264204C554E00003D
:10008000253032642F253032642F25303264204DE4
:1000900041520000253032642F253032642F253044
:1000A0003264204D49450000253032642F2530321E
:1000B000642F25303264204A5545000025303264D3
:1000C0002F253032642F25303264205649450000F8
:1000D000253032642F253032642F2530326420538E
:1000E0004142000048483A4D4D002563483A4D4D85
:1000F000000044442F4D4D2F5959204400002563E2
:10010000442F4D4D2F5959204400256325632F4D11
:100110004D2F595920440000253032642F25634D5E
:100120002F5959204400253032642F253032642F56
:100130005959204400003C202020656E74657220CF
:1001400020203E00072D434F4E46494720484F553B
:10015000522D0000072D434F4E464947204441543D
:10016000452D0000072D455849542D003C202020E6
:10017000656E7465722020203E00072D4C554E455B
:10018000532D0000072D4D41525445532D00072D8E
:100190004D494552434F4C45532D0000072D4A55BC
:1001A000455645532D00072D564945524E45532D72
:1001B0000000072D53414241444F2D00072D444F6D
:1001C0004D494E474F2D0000072D455849542043B7
:1001D0004F4E4649472D00003C202020656E746537
:1001E000722020203E00072D434F4E4649472052A3
:1001F000454C4F4A2D00072D434F4E464947204F4F
:100200004E2F4F46462D0000072D455849542D00CE
:1002100032EF09F0746B745107080DE3D890733313
:1002200002E2899401D08984929492928982929276
:100230008992742BF0D7000C9290898071C073F072
:10024000E9DF72C073F0E6DF92908990000C929023
:1002500089802FC073F0DEDF92840000306A305056
:1002600007080FE3928480B402D0D89001D0D880E0
:1002700031329292898200D09292899200D0302AB3
:10028000EED79290899031C001F0000C9290899045
:1002900000D0929289928E0E716F726BCDDF900EAC
:1002A000716FA40E726FC8DF810E2F6ED0DF01C098
:1002B0002BF02B50800B04E0800E716F726BBCDF53
:1002C00034EF09F0EA6A8E0EE96EEF500EE0010E8F
:1002D000016E006A002EFED7012EFBD74A0E006E7B
:1002E000002EFED700D0EF2EF2D7000C95B102D031
:1002F0008A9001D08A80939095B302D08A9201D0DF
:100300008A82939295B502D08A9401D08A8493947C
:1003100095B702D08A9601D08A8693960000939A68
:100320008A8A00D0939A8A9A000C93988A98130E1E
:10033000006E002EFED700D0925303E093988A8877
:1003400002D093988A980000939A8A9A9339946F6E
:100350000F0E941794C095F0C9DF93510F0B946F53
:10036000956FC4DF000C93988A98939A8A9A0F0E1F
:100370008E6FA8DF2B6A2B50020808E3030E956FDF
:10038000B5DF050E8E6F9EDF2B2AF5D7020E956F17
:10039000ADDF2B6A2B5003080CE3036A2B5040DEC1
:1003A0002C6E926B936FC1DF050E8E6F8BDF2B2A45
:1003B000F1D736EF09F02DC02FF02CC02EF0306AA7
:1003C000305001081AE32F50036E2E502E2AD8B455
:1003D0002F2AE96E03C0EAFF2B502B2A336EF2CF8F
:1003E00034F0F29E33C0A9FFA69CA69EA680A8501A
:1003F00034BEF28EEF6E302AE3D73DEF09F030C005
:1004000031F03138006E0F0E001600500A0DF3CF98
:1004100030F03138006EF00E00160050003A0F0E2A
:1004200000160050302630C001F0000C8F2D01D096
:1004300003D0400E906F01D0906B010E8E5D90271F
:1004400090518009916F926B936F6FDF000C8E510A
:10045000016A8D5D03E28DC000F00CD0006A080EC9
:100460008F6F8D3700368E51005CD8B0006E01362C
:100470008F2FF7D7000C8D510C0A07E00B0A0DE007
:100480000D0A10E0020A14E018D0926B010E936F6F
:100490004CDF020E8E6F16DF16D0010E8E6F8F6F3F
:1004A000C5DF11D0010E8E6F020E8F6FBFDF0BD034
:1004B000926B100E936F39DF06D0010E926F8DC0D4
:1004C00093F033DF00D0000C200E88A9300E896F26
:1004D00087C000F087AF07D0001E002A00C087F059
:1004E0002D0E896F888F015087C08DF0640E8E6F3E
:1004F000AEDF00C087F0300E01248A6F87C08DF018
:100500000A0E8E6FA4DF300E00248C6F300E012493
:100510008B6F89C000F088A702D088AF889588B912
:100520000BD088AF22D088B520D000C08AF088B325
:100530001CD000C08BF019D0300E8A5D16E100C0CF
:100540008AF0200E896F88A704D08895888388AFA9
:100550008893300E8B5D09E100C08BF0200E8A6F0E
:1005600088A7F7D7889388AF889188A503D089C0DA
:100570008DF081DF88A303D08AC08DF07CDF88A155
:1005800003D08BC08DF077DF8CC08DF074DF000C52
:100590002BC087F0010E886F97DF3A0E8D6F6BDFEF
:1005A0002CC087F0010E886F8FDF3A0E8D6F63DFEE
:1005B0002DC087F0010E886F87DF9FEF09F00900DB
:1005C000F6CF88F0F7CF89F0F5CF8DF054DF88C0F3
:1005D000F6FF89C0F7FF872FF2D7000C010E2E5CC3
:1005E000F90FD8B0CED0070FC3EF03F02BC087F0C0
:1005F000010E886F69DF2F0E8D6F3DDF2CC087F0F5
:10060000010E886F61DF2F0E8D6F35DF2DC087F0F3
:10061000010E886F59DF660EF66E000EF76E040E3F
:10062000876FCDDFAED02BC087F0010E886F4CDF17
:100630002F0E8D6F20DF2CC087F0010E886F44DFF6
:100640002F0E8D6F18DF2DC087F0010E886F3CDFF5
:100650007A0EF66E000EF76E040E876FB0DF91D043
:100660002BC087F0010E886F2FDF2F0E8D6F03DFF9
:100670002CC087F0010E886F27DF2F0E8D6FFBDEF9
:100680002DC087F0010E886F1FDF8E0EF66E000EF4
:10069000F76E040E876F93DF74D02BC087F0010EC6
:1006A000886F12DF2F0E8D6FE6DE2CC087F0010EF3
:1006B000886F0ADF2F0E8D6FDEDE2DC087F0010EF2
:1006C000886F02DFA20EF66E000EF76E040E876FC3
:1006D00076DF57D02BC087F0010E886FF5DE2F0E26
:1006E0008D6FC9DE2CC087F0010E886FEDDE2F0EF6
:1006F0008D6FC1DE2DC087F0010E886FE5DEB60E6E
:10070000F66E000EF76E040E876F59DF3AD02BC0DD
:1007100087F0010E886FD8DE2F0E8D6FACDE2CC0F7
:1007200087F0010E886FD0DE2F0E8D6FA4DE2DC0F6
:1007300087F0010E886FC8DECA0EF66E000EF76EE7
:10074000040E876F3CDF1DD02BC087F0010E886F31
:10075000BBDE2F0E8D6F8FDE2CC087F0010E886FF1
:10076000B3DE2F0E8D6F87DE2DC087F0010E886FF0
:10077000ABDEDE0EF66E000EF76E040E876F1FDF27
:1007800000D0AFEF09F0E824F76AF736A10FF66E54
:10079000070EF7220A00F550FA6E0800F550F96EC0
:1007A000EC05260660069A06D4060E0748079580D3
:1007B000000E83B0010E896F9582000E83B2010E88
:1007C00089179584000E83B4010E89179586000E53
:1007D00083B6010E891504E0000E016E04D003D02B
:1007E000010E016E00D0000C876B042A0450210812
:1007F00056E2075005E0010A0AE0030A0FE015D0AF
:1008000095988C98959A8C8A959C8C8C0ED09598FE
:100810008C88959A8C9A959C8C8C07D095988C880E
:10082000959A8C8A959C8C9C00D005A008D0BFDF3F
:10083000015204E1059006C087F0066A2FD0B7DFA9
:10084000015227E0958083B002D0886B11D0958249
:1008500083B203D0010E886F0BD0958483B403D08C
:10086000020E886F05D0958683B602D0030E886F7E
:100870008851030DF3508A6B896F036A07508925ED
:10088000016E8A510322015002EC00F0066E0580D1
:1008900005D0072A0750030801E1076A046A87C0E8
:1008A00001F0000C0900F5520CE0F6CF88F0F7CF0C
:1008B00089F0F5CF8DF0DFDD88C0F6FF89C0F7FF46
:1008C000F1D7000C872D01D003D08751020809E130
:1008D000010E8E6F8F6FAADD340EF66E000EF76E6E
:1008E000E1DF875102080AE1010E8E6F020E8F6F61
:1008F0009DDD460EF66E000EF76ED4DF000CEF5253
:100900000FE0EACF88F0E9CF87F0EFCF8DF0B3DDCD
:1009100088C0EAFF87C0E9FFE92AD8B4EA2AEFD7FE
:10092000000C70C08DF00A0E8E6F91DD01C071F069
:1009300071510A0DF350705D726F7139006EF00ED7
:10094000001600507211016E000C6CC070F0E9DFEF
:1009500001C06EF0840E716F01C072F06DDC6DC06D
:1009600070F0DFDF01C06EF0820E716F01C072F0B7
:1009700063DC706BD6DF01C06EF0800E716F01C05A
:1009800072F05ADC46EF06F06CC070F0CADF01C0AE
:1009900070F0860E716F01C072F04EDC6DC070F0A9
:1009A000C0DF01C070F0880E716F01C072F044DCCE
:1009B0006EC070F0B6DF01C070F08C0E716F01C0B8
:1009C00072F03ADC6FC070F0ACDF01C070F08A0EDC
:1009D000716F01C072F030DCA3EF08F0020E876F78
:1009E00071DF010E4F6E020E8E6F8F6F1FDD360EA0
:1009F000F66E010EF76E56DF4F52D8B4C5EF08F011
:100A00004F50010A09E0030AD8B445D1010AD8B40D
:100A1000A8EF08F0C4EF08F02D0E516E4E0E526E86
:100A2000550E536E450E546E560E556E410E566E53
:100A3000200E576E480E586E4F0E596E520E5A6E5B
:100A4000410E5B6E2D0E5C6E5D6A010E876F3ADFA4
:100A5000440EF66E010EF76E25DFC6DE01C050F0C3
:100A60005050310802E1030E4F6E50503208D8A4A6
:100A70000DD16D6B510E6C6F6DC07FF06CC07EF050
:100A8000846B020E876F1EDF070E8D6FF4DC7FC054
:100A9000EAFF7EC0E9FF33DF050E8E6F020E8F6F17
:100AA000C5DC495208E14A5206E1E40EF66E000E3A
:100AB000F76EF8DE0DD049C087F0010E886F04DDB7
:100AC0003A0E8D6FD8DC4AC087F0010E886FFCDCCF
:100AD0008BDE01C084F084512F0807E28451320874
:100AE00004E384C080F0805101D0846B8453F0E033
:100AF000050E8E6F020E8F6F99DC80C08DF0BBDC0F
:100B0000EC0EF66E000EF76E040E876F58DD6CDE8D
:100B100001C084F08051300803E0805131080BE1BE
:100B200084512F0807E28451390804E384C081F01E
:100B3000815101D0846B805132080BE184512F0820
:100B400007E28451340804E384C081F0815101D06C
:100B5000846B8453DCE0050E8E6F020E8F6F66DCB3
:100B600080C08DF088DC81C08DF085DC3A0E8D6F01
:100B700082DC4D0E8D6F7FDC4D0E8D6F7CDC34DEA4
:100B800001C084F084512F0807E28451350804E342
:100B900084C082F0825101D0846B8453F0E0050E52
:100BA0008E6F020E8F6F42DC80C08DF064DC81C0DE
:100BB0008DF061DC3A0E8D6F5EDC82C08DF05BDC07
:100BC0004D0E8D6F58DC10DE01C084F084512F086B
:100BD00007E28451350804E384C083F0835101D0D7
:100BE000846B8453F0E0050E8E6F020E8F6F1EDC57
:100BF00080C08DF040DC81C08DF03DDC3A0E8D6F01
:100C00003ADC82C08DF037DC83C08DF034DC020E1C
:100C1000856FFA0E8E6F62EC01F0852FFAD70A0EFF
:100C20008A6F300E805D876F300E815D886F8A51CC
:100C3000885D05E38A510A0DF3CF8AF0F8D7875112
:100C40008A03F3508825896F89C001F001C049F0FB
:100C50000A0E8A6F300E825D876F300E835D886F5B
:100C60008A51885D05E38A510A0DF3CF8AF0F8D7DF
:100C700087518A03F3508825896F89C001F001C02C
:100C80004AF049C06CF04AC06DF05FD6505033084E
:100C9000D8B44F2A79D22D0E5E6E4E0E5F6E550E71
:100CA000606F450E616F560E626F410E636F200ECE
:100CB000646F460E656F450E666F430E676F480E94
:100CC000686F410E696F2D0E6A6F6B6B010E876F37
:100CD000F9DD540EF66E010EF76EE4DD85DD01C020
:100CE00050F050503108D8B44F0650503208D8A4B4
:100CF0002AD26D6B5E0E6C6F6DC06FF06CC06EF0C3
:100D0000726B020E876FDEDD070E8D6F3BEC02F01B
:100D10006FC0EAFF6EC0E9FFF2DD030E8E6F020EB8
:100D20008F6F16EC02F0F20EF66E000EF76EBADD63
:100D30005BDD01C072F072512F0807E27251330877
:100D400004E372C070F0705101D0726B7253F0E026
:100D5000030E8E6F020E8F6F16EC02F070C08DF0D6
:100D60003BEC02F0000EF66E010EF76E090E876F77
:100D700026DC3ADD01C072F0705130080BE172518F
:100D8000300807E27251390804E372C071F0715102
:100D900001D0726B705130080EE2705132080BE3D3
:100DA00072512F0807E27251390804E372C071F0E2
:100DB000715101D0726B705133080BE172513008E0
:100DC00003E07251310804E172C071F0715101D039
:100DD000726B7253CEE0030E8E6F020E8F6F16ECA5
:100DE00002F070C08DF03BEC02F071C08DF03BEC76
:100DF00002F00E0EF66E010EF76E080E876FDFEC36
:100E000002F00A0E8A6F300E705D876F300E715DD2
:100E1000886F8A51885D05E38A510A0DF3CF8AF005
:100E2000F8D787518A03F3508825896F89C001F06C
:100E300001C04BF0D9DC01C072F07251300803E000
:100E40007251310804E172C070F0705101D0726BC0
:100E50007253F0E0030E8E6F020E8F6F16EC02F0ED
:100E60004BC087F0010E886F64EC02F02F0E8D6F7F
:100E70003BEC02F070C08DF03BEC02F01F0EF66E02
:100E8000010EF76E060E876FDFEC02F0ADDC01C0DD
:100E900072F0705130080BE17251300807E2725164
:100EA000390804E372C071F0715101D0726B705156
:100EB00031080BE172512F0807E27251320804E346
:100EC00072C071F0715101D0726B7253DFE0030E8A
:100ED0008E6F020E8F6F16EC02F00A0E8A6F300EC4
:100EE000705D876F300E715D886F8A51885D05E394
:100EF0008A510A0DF3CF8AF0F8D787518A03F3504D
:100F00008825896F89C001F001C04CF04C50020A5D
:100F100009E0060A0DE0020A11E00F0A15E0050AD1
:100F200019E01ED04B501C0802E21C0E4B6E18D06C
:100F30004B501E0802E21E0E4B6E12D04B501C0886
:100F400002E21C0E4B6E0CD04B501C0802E21C0E31
:100F50004B6E06D04B501C0802E21C0E4B6E00D0AC
:100F60004BC087F0010E886F64EC02F02F0E8D6F7E
:100F70003BEC02F04CC087F0010E886F64EC02F08D
:100F80002F0EF66E010EF76E050E876FDFEC02F086
:100F90002BDC01C072F072512F0807E27251390840
:100FA00004E372C070F0705101D0726B7253F0E0C4
:100FB000030E8E6F020E8F6F16EC02F04BC087F09F
:100FC000010E886F64EC02F02F0E8D6F3BEC02F087
:100FD0004CC087F0010E886F64EC02F02F0E8D6F0D
:100FE0003BEC02F070C08DF03BEC02F0590E8D6FBF
:100FF0003BEC02F0200E8D6F3BEC02F0440E8D6F47
:101000003BEC02F0F4EC03F001C072F072512F08D7
:1010100007E27251390804E372C071F0715101D0D6
:10102000726B7253EFE0030E8E6F020E8F6F16EC31
:1010300002F00A0E8A6F300E705D876F300E715DA0
:10104000886F8A51885D05E38A510A0DF3CF8AF0D3
:10105000F8D787518A03F3508825896F89C001F03A
:1010600001C04DF04BC087F0010E886F64EC02F0B8
:101070002F0E8D6F3BEC02F04CC087F0010E886F95
:1010800064EC02F02F0E8D6F3BEC02F04DC087F048
:10109000010E886F64EC02F0200E8D6F3BEC02F0C5
:1010A000440E8D6F3BEC02F0F4EC03F001C072F0E3
:1010B0007251300807E27251390804E372C070F0CF
:1010C000705101D0726B7253EFE0030E8E6F020EFF
:1010D0008F6F16EC02F0300E705D4E6E4BC087F0D5
:1010E000010E886F64EC02F02F0E8D6F3BEC02F066
:1010F0004CC087F0010E886F64EC02F02F0E8D6FEC
:101100003BEC02F04DC087F0010E886F64EC02F0FA
:10111000200E8D6F3BEC02F04EC087F0010E886F01
:1011200064EC02F0040E736FFA0E8E6F62EC01F045
:10113000732FFAD74BC06CF04CC06DF04DC06EF001
:101140004EC06FF021D450503308D8B44F2A1CD071
:10115000010E876F62EC04F0640EF66E010EF76EFE
:1011600052EC04F0F4EC03F001C050F050503108A0
:10117000D8B44F0650503208D8B44F6A5050330894
:1011800002E1010E4F6E00D037D4F1EF09F07EC0BE
:1011900080F07DC07FF0816B8151010826E37C5196
:1011A0007C2B826F8051036E7F517F2BD8B4802BB4
:1011B000E96E03C0EAFFEFCF83F082C0A9FF83C0CE
:1011C000A8FFA69CA69EA684F250006EF29E0F0178
:1011D000550EA76EAA0EA76EA682A6B2FED7A6943B
:1011E0000050F2120001812BD7D78FEF1BF0F86A65
:1011F000D09EEA6AE96A600ED36ED350C150C00B2C
:101200000F09C16E070EB46E046A0590066A076A7C
:10121000C150C00B0F09C16EC090C092C094C09E57
:10122000C280C69A949E93809392010EC66E000E61
:10123000C76ED190800ED56ECD6A000ECA6E000EBC
:10124000CB6EB16A9484BD6AB76AB66A070EB46E93
:101250009250926E030E006E002EFED7B450A19CE9
:1012600008EF01F046EF01F0B3EF01F0010E2B6E35
:101270002D6A080E2C6EDBEF01F0850E2F6E27EC29
:1012800001F001C02BF001C030F0FFEC01F001C013
:1012900024F0830E2F6E27EC01F001C02BF001C06B
:1012A00030F0FFEC01F001C025F0810E2F6E27EC2D
:1012B00001F001C02BF001C030F0FFEC01F001C0E3
:1012C00026F0870E2F6E27EC01F001C02BF001C035
:1012D00030F0FFEC01F001C027F0890E2F6E27ECF3
:1012E00001F001C02BF001C030F0FFEC01F001C0B3
:1012F00028F08D0E2F6E27EC01F001C02BF001C0FD
:1013000030F0FFEC01F001C029F08B0E2F6E27ECBE
:1013100001F001C02BF001C030F0FFEC01F001C082
:101320002AF0050E8E6F010E8F6F16EC02F024C0AE
:101330002BF025C02CF026C02DF0C8EF02F0030ED4
:101340008E6F020E8F6F16EC02F027C02BF028C0B4
:101350002CF029C02DF02AC02EF0EEEF02F0070E7F
:101360008D6F3BEC02F0F4EC03F00152D8B4B6EF11
:101370001BF0020E876F62EC04F0010E2B6E020E62
:101380008E6F8F6F16EC02F0D80EF66E010EF76EB0
:1013900052EC04F02B52D8B4B2EF1BF02B50010AE0
:1013A00008E0030A24E0010AD8B494EF1BF0B0EF80
:1013B0001BF0010E876F62EC04F0E60EF66E010E74
:1013C000F76E52EC04F0F4EC03F001C02CF02C505A
:1013D000310802E1030E2B6E2C50320802E1EEEFD1
:1013E00004F02C503308D8B42B2AB0EF1BF0010EB8
:1013F000876F62EC04F0F60EF66E010EF76E52EC9B
:1014000004F0F4EC03F001C02CF02C503108D8B4F7
:101410002B062C503208D8A48FEF1BF02D0E496EEE
:10142000480E4A6E4F0E4B6E520E4C6E410E4D6E74
:10143000200E4E6E4F0E4F6E4E0E506E2D0E516E94
:10144000526A536E480E546E4F0E556E520E566EC3
:10145000410E576E200E586E4F0E596E460E5A6E44
:101460005B6E2D0E5C6E5D6A020E876F62EC04F09F
:10147000010E5E6E020E8E6F8F6F16EC02F06C0E18
:10148000F66E010EF76E52EC04F05E52D8B488EF9F
:101490001BF05E50010A1DE0030AD8B489D2010A8C
:1014A000D8B446EF0FF0070AD8B4B4EF11F0010A30
:1014B000D8B422EF14F0030AD8B490EF16F0010A62
:1014C000D8B4FDEF18F00F0AD8B46AEF1BF086EF1E
:1014D0001BF0010E876F62EC04F07A0EF66E010EBF
:1014E000F76E52EC04F0F4EC03F001C05FF05F50D3
:1014F000310802E1080E5E6E5F503208D8A452D265
:10150000616B490E606F61C07FF060C07EF0846BDC
:10151000020E876F62EC04F0070E8D6F3BEC02F059
:101520007FC0EAFF7EC0E9FF7FEC04F0050E8E6FFE
:10153000020E8F6F16EC02F0085209E1095207E122
:10154000E40EF66E000EF76E52EC04F010D008C0F8
:1015500087F0010E886F64EC02F03A0E8D6F3BEC61
:1015600002F009C087F0010E886F64EC02F0F4EC21
:1015700003F001C084F084512F0807E2845132083F
:1015800004E384C080F0805101D0846B8453EFE089
:10159000050E8E6F020E8F6F16EC02F080C08DF07C
:1015A0003BEC02F0EC0EF66E000EF76E040E876F49
:1015B000DFEC02F0F4EC03F001C084F0805130085D
:1015C00003E0805131080BE184512F0807E2845178
:1015D000390804E384C081F0815101D0846B8051CB
:1015E00032080BE184512F0807E28451340804E3E8
:1015F00084C081F0815101D0846B8453DBE0050EFF
:101600008E6F020E8F6F16EC02F080C08DF03BECF7
:1016100002F081C08DF03BEC02F03A0E8D6F3BEC96
:1016200002F04D0E8D6F3BEC02F04D0E8D6F3BECDA
:1016300002F0F4EC03F001C084F084512F0807E2BB
:101640008451350804E384C082F0825101D0846B58
:101650008453EFE0050E8E6F020E8F6F16EC02F0D2
:1016600080C08DF03BEC02F081C08DF03BEC02F0CD
:101670003A0E8D6F3BEC02F082C08DF03BEC02F035
:101680004D0E8D6F3BEC02F0F4EC03F001C084F0E2
:1016900084512F0807E28451350804E384C083F0A5
:1016A000835101D0846B8453EFE0050E8E6F020EE0
:1016B0008F6F16EC02F080C08DF03BEC02F081C021
:1016C0008DF03BEC02F03A0E8D6F3BEC02F082C0E5
:1016D0008DF03BEC02F083C08DF03BEC02F0020E8B
:1016E000856FFA0E8E6F62EC01F0852FFAD70A0E25
:1016F0008A6F300E805D876F300E815D886F8A51F2
:10170000885D05E38A510A0DF3CF8AF0F8D7875137
:101710008A03F3508825896F89C001F001C008F061
:101720000A0E8A6F300E825D876F300E835D886F80
:101730008A51885D05E38A510A0DF3CF8AF0F8D704
:1017400087518A03F3508825896F89C001F001C051
:1017500009F0616B530E606F61C07FF060C07EF076
:10176000846B020E876F62EC04F0070E8D6F3BEC0A
:1017700002F07FC0EAFF7EC0E9FF7FEC04F0050EB7
:101780008E6F020E8F6F16EC02F00A5209E10B52B7
:1017900007E1E40EF66E000EF76E52EC04F010D086
:1017A0000AC087F0010E886F64EC02F03A0E8D6F6C
:1017B0003BEC02F00BC087F0010E886F64EC02F086
:1017C000F4EC03F001C084F084512F0807E2845147
:1017D000320804E384C080F0805101D0846B8453CC
:1017E000EFE0050E8E6F020E8F6F16EC02F080C0D8
:1017F0008DF03BEC02F0EC0EF66E000EF76E040E70
:10180000876FDFEC02F0F4EC03F001C084F080514C
:10181000300803E0805131080BE184512F0807E2C2
:101820008451390804E384C081F0815101D0846B74
:10183000805132080BE184512F0807E284513408AB
:1018400004E384C081F0815101D0846B8453DBE0D8
:10185000050E8E6F020E8F6F16EC02F080C08DF0B9
:101860003BEC02F081C08DF03BEC02F03A0E8D6F44
:101870003BEC02F04D0E8D6F3BEC02F04D0E8D6F88
:101880003BEC02F0F4EC03F001C084F084512F082B
:1018900007E28451350804E384C082F0825101D00C
:1018A000846B8453EFE0050E8E6F020E8F6F16EC83
:1018B00002F080C08DF03BEC02F081C08DF03BEC7B
:1018C00002F03A0E8D6F3BEC02F082C08DF03BECE3
:1018D00002F04D0E8D6F3BEC02F0F4EC03F001C012
:1018E00084F084512F0807E28451350804E384C052
:1018F00083F0835101D0846B8453EFE0050E8E6F2B
:10190000020E8F6F16EC02F080C08DF03BEC02F0FF
:1019100081C08DF03BEC02F03A0E8D6F3BEC02F093
:1019200082C08DF03BEC02F083C08DF03BEC02F006
:10193000020E856FFA0E8E6F62EC01F0852FFAD7DA
:101940000A0E8A6F300E805D876F300E815D886F62
:101950008A51885D05E38A510A0DF3CF8AF0F8D7E2
:1019600087518A03F3508825896F89C001F001C02F
:101970000AF00A0E8A6F300E825D876F300E835D2B
:10198000886F8A51885D05E38A510A0DF3CF8AF08A
:10199000F8D787518A03F3508825896F89C001F0F1
:1019A00001C00BF05F503308D8B45E2A86EF1BF0FD
:1019B000010E876F62EC04F0840EF66E010EF76E76
:1019C00052EC04F0F4EC03F001C05FF05F5031081A
:1019D000D8B45E065F503208D8A452D2616B490E6B
:1019E000606F61C07FF060C07EF0846B020E876F15
:1019F00062EC04F0070E8D6F3BEC02F07FC0EAFF53
:101A00007EC0E9FF7FEC04F0050E8E6F020E8F6F33
:101A100016EC02F00C5209E10D5207E1E40EF66EED
:101A2000000EF76E52EC04F010D00CC087F0010EDF
:101A3000886F64EC02F03A0E8D6F3BEC02F00DC043
:101A400087F0010E886F64EC02F0F4EC03F001C043
:101A500084F084512F0807E28451320804E384C0E3
:101A600080F0805101D0846B8453EFE0050E8E6FBF
:101A7000020E8F6F16EC02F080C08DF03BEC02F08E
:101A8000EC0EF66E000EF76E040E876FDFEC02F0C0
:101A9000F4EC03F001C084F08051300803E0805181
:101AA00031080BE184512F0807E28451390804E31F
:101AB00084C081F0815101D0846B805132080BE1E8
:101AC00084512F0807E28451340804E384C081F074
:101AD000815101D0846B8453DBE0050E8E6F020EC2
:101AE0008F6F16EC02F080C08DF03BEC02F081C0ED
:101AF0008DF03BEC02F03A0E8D6F3BEC02F04D0E98
:101B00008D6F3BEC02F04D0E8D6F3BEC02F0F4EC70
:101B100003F001C084F084512F0807E28451350896
:101B200004E384C082F0825101D0846B8453EFE0DF
:101B3000050E8E6F020E8F6F16EC02F080C08DF0D6
:101B40003BEC02F081C08DF03BEC02F03A0E8D6F61
:101B50003BEC02F082C08DF03BEC02F04D0E8D6F3D
:101B60003BEC02F0F4EC03F001C084F084512F0848
:101B700007E28451350804E384C083F0835101D027
:101B8000846B8453EFE0050E8E6F020E8F6F16ECA0
:101B900002F080C08DF03BEC02F081C08DF03BEC98
:101BA00002F03A0E8D6F3BEC02F082C08DF03BEC00
:101BB00002F083C08DF03BEC02F0020E856FFA0E4E
:101BC0008E6F62EC01F0852FFAD70A0E8A6F300E05
:101BD000805D876F300E815D886F8A51885D05E377
:101BE0008A510A0DF3CF8AF0F8D787518A03F35050
:101BF0008825896F89C001F001C00CF00A0E8A6F38
:101C0000300E825D876F300E835D886F8A51885DEC
:101C100005E38A510A0DF3CF8AF0F8D787518A037A
:101C2000F3508825896F89C001F001C00DF0616B08
:101C3000530E606F61C07FF060C07EF0846B020E57
:101C4000876F62EC04F0070E8D6F3BEC02F07FC0F3
:101C5000EAFF7EC0E9FF7FEC04F0050E8E6F020EF6
:101C60008F6F16EC02F00E5209E10F5207E1E40EFD
:101C7000F66E000EF76E52EC04F010D00EC087F036
:101C8000010E886F64EC02F03A0E8D6F3BEC02F0AF
:101C90000FC087F0010E886F64EC02F0F4EC03F0E3
:101CA00001C084F084512F0807E28451320804E314
:101CB00084C080F0805101D0846B8453EFE0050E26
:101CC0008E6F020E8F6F16EC02F080C08DF03BEC31
:101CD00002F0EC0EF66E000EF76E040E876FDFEC6E
:101CE00002F0F4EC03F001C084F08051300803E00E
:101CF000805131080BE184512F0807E284513908E3
:101D000004E384C081F0815101D0846B805132089A
:101D10000BE184512F0807E28451340804E384C0A6
:101D200081F0815101D0846B8453DBE0050E8E6F0E
:101D3000020E8F6F16EC02F080C08DF03BEC02F0CB
:101D400081C08DF03BEC02F03A0E8D6F3BEC02F05F
:101D50004D0E8D6F3BEC02F04D0E8D6F3BEC02F0A3
:101D6000F4EC03F001C084F084512F0807E28451A1
:101D7000350804E384C082F0825101D0846B84531F
:101D8000EFE0050E8E6F020E8F6F16EC02F080C032
:101D90008DF03BEC02F081C08DF03BEC02F03A0E8E
:101DA0008D6F3BEC02F082C08DF03BEC02F04D0EEB
:101DB0008D6F3BEC02F0F4EC03F001C084F0845131
:101DC0002F0807E28451350804E384C083F083516F
:101DD00001D0846B8453EFE0050E8E6F020E8F6F7F
:101DE00016EC02F080C08DF03BEC02F081C08DF06B
:101DF0003BEC02F03A0E8D6F3BEC02F082C08DF0AE
:101E00003BEC02F083C08DF03BEC02F0020E856FDC
:101E1000FA0E8E6F62EC01F0852FFAD70A0E8A6FE8
:101E2000300E805D876F300E815D886F8A51885DCE
:101E300005E38A510A0DF3CF8AF0F8D787518A0358
:101E4000F3508825896F89C001F001C00EF00A0E99
:101E50008A6F300E825D876F300E835D886F8A5186
:101E6000885D05E38A510A0DF3CF8AF0F8D78751D0
:101E70008A03F3508825896F89C001F001C00FF0F3
:101E80005F503308D8B45E2A86EF1BF0010E876FCF
:101E900062EC04F08E0EF66E010EF76E52EC04F05A
:101EA000F4EC03F001C05FF05F503108D8B45E0677
:101EB0005F503208D8A452D2616B490E606F61C086
:101EC0007FF060C07EF0846B020E876F62EC04F0DE
:101ED000070E8D6F3BEC02F07FC0EAFF7EC0E9FF8A
:101EE0007FEC04F0050E8E6F020E8F6F16EC02F081
:101EF000105209E1115207E1E40EF66E000EF76E82
:101F000052EC04F010D010C087F0010E886F64EC22
:101F100002F03A0E8D6F3BEC02F011C087F0010E1B
:101F2000886F64EC02F0F4EC03F001C084F084519B
:101F30002F0807E28451320804E384C080F0805106
:101F400001D0846B8453EFE0050E8E6F020E8F6F0D
:101F500016EC02F080C08DF03BEC02F0EC0EF66E59
:101F6000000EF76E040E876FDFEC02F0F4EC03F066
:101F700001C084F08051300803E0805131080BE14A
:101F800084512F0807E28451390804E384C081F0AA
:101F9000815101D0846B805132080BE184512F08AC
:101FA00007E28451340804E384C081F0815101D0F8
:101FB000846B8453DBE0050E8E6F020E8F6F16EC80
:101FC00002F080C08DF03BEC02F081C08DF03BEC64
:101FD00002F03A0E8D6F3BEC02F04D0E8D6F3BEC34
:101FE00002F04D0E8D6F3BEC02F0F4EC03F001C0FB
:101FF00084F084512F0807E28451350804E384C03B
:1020000082F0825101D0846B8453EFE0050E8E6F15
:10201000020E8F6F16EC02F080C08DF03BEC02F0E8
:1020200081C08DF03BEC02F03A0E8D6F3BEC02F07C
:1020300082C08DF03BEC02F04D0E8D6F3BEC02F058
:10204000F4EC03F001C084F084512F0807E28451BE
:10205000350804E384C083F0835101D0846B84533A
:10206000EFE0050E8E6F020E8F6F16EC02F080C04F
:102070008DF03BEC02F081C08DF03BEC02F03A0EAB
:102080008D6F3BEC02F082C08DF03BEC02F083C020
:102090008DF03BEC02F0020E856FFA0E8E6F62EC53
:1020A00001F0852FFAD70A0E8A6F300E805D876F98
:1020B000300E815D886F8A51885D05E38A510A0D73
:1020C000F3CF8AF0F8D787518A03F3508825896FB8
:1020D00089C001F001C010F00A0E8A6F300E825DD7
:1020E000876F300E835D886F8A51885D05E38A5162
:1020F0000A0DF3CF8AF0F8D787518A03F350882569
:10210000896F89C001F001C011F0616B530E606FDF
:1021100061C07FF060C07EF0846B020E876F62EC5E
:1021200004F0070E8D6F3BEC02F07FC0EAFF7EC02B
:10213000E9FF7FEC04F0050E8E6F020E8F6F16EC38
:1021400002F0125209E1135207E1E40EF66E000E9E
:10215000F76E52EC04F010D012C087F0010E886FB9
:1021600064EC02F03A0E8D6F3BEC02F013C087F086
:10217000010E886F64EC02F0F4EC03F001C084F00F
:1021800084512F0807E28451320804E384C080F0B0
:10219000805101D0846B8453EFE0050E8E6F020EE8
:1021A0008F6F16EC02F080C08DF03BEC02F0EC0E6D
:1021B000F66E000EF76E040E876FDFEC02F0F4ECA3
:1021C00003F001C084F08051300803E080513108F1
:1021D0000BE184512F0807E28451390804E384C0DD
:1021E00081F0815101D0846B805132080BE1845120
:1021F0002F0807E28451340804E384C081F0815140
:1022000001D0846B8453DBE0050E8E6F020E8F6F5E
:1022100016EC02F080C08DF03BEC02F081C08DF036
:102220003BEC02F03A0E8D6F3BEC02F04D0E8D6FE1
:102230003BEC02F04D0E8D6F3BEC02F0F4EC03F042
:1022400001C084F084512F0807E28451350804E36B
:1022500084C082F0825101D0846B8453EFE0050E7C
:102260008E6F020E8F6F16EC02F080C08DF03BEC8B
:1022700002F081C08DF03BEC02F03A0E8D6F3BEC2A
:1022800002F082C08DF03BEC02F04D0E8D6F3BEC06
:1022900002F0F4EC03F001C084F084512F0807E24F
:1022A0008451350804E384C083F0835101D0846BEA
:1022B0008453EFE0050E8E6F020E8F6F16EC02F066
:1022C00080C08DF03BEC02F081C08DF03BEC02F061
:1022D0003A0E8D6F3BEC02F082C08DF03BEC02F0C9
:1022E00083C08DF03BEC02F0020E856FFA0E8E6F0C
:1022F00062EC01F0852FFAD70A0E8A6F300E805DEE
:10230000876F300E815D886F8A51885D05E38A5141
:102310000A0DF3CF8AF0F8D787518A03F350882546
:10232000896F89C001F001C012F00A0E8A6F300E69
:10233000825D876F300E835D886F8A51885D05E30B
:102340008A510A0DF3CF8AF0F8D787518A03F350E8
:102350008825896F89C001F001C013F05F503308F0
:10236000D8B45E2A86EF1BF0010E876F62EC04F092
:102370009C0EF66E010EF76E52EC04F0F4EC03F0D6
:1023800001C05FF05F503108D8B45E065F5032087C
:10239000D8A452D2616B490E606F61C07FF060C0FB
:1023A0007EF0846B020E876F62EC04F0070E8D6F77
:1023B0003BEC02F07FC0EAFF7EC0E9FF7FEC04F057
:1023C000050E8E6F020E8F6F16EC02F0145209E1AB
:1023D000155207E1E40EF66E000EF76E52EC04F0B3
:1023E00010D014C087F0010E886F64EC02F03A0E32
:1023F0008D6F3BEC02F015C087F0010E886F64EC26
:1024000002F0F4EC03F001C084F084512F0807E2DD
:102410008451320804E384C080F0805101D0846B81
:102420008453EFE0050E8E6F020E8F6F16EC02F0F4
:1024300080C08DF03BEC02F0EC0EF66E000EF76EF5
:10244000040E876FDFEC02F0F4EC03F001C084F0BF
:102450008051300803E0805131080BE184512F088E
:1024600007E28451390804E384C081F0815101D02E
:10247000846B805132080BE184512F0807E28451AC
:10248000340804E384C081F0815101D0846B84530B
:10249000DBE0050E8E6F020E8F6F16EC02F080C02F
:1024A0008DF03BEC02F081C08DF03BEC02F03A0E77
:1024B0008D6F3BEC02F04D0E8D6F3BEC02F04D0E3C
:1024C0008D6F3BEC02F0F4EC03F001C084F084511A
:1024D0002F0807E28451350804E384C082F082515A
:1024E00001D0846B8453EFE0050E8E6F020E8F6F68
:1024F00016EC02F080C08DF03BEC02F081C08DF054
:102500003BEC02F03A0E8D6F3BEC02F082C08DF096
:102510003BEC02F04D0E8D6F3BEC02F0F4EC03F05F
:1025200001C084F084512F0807E28451350804E388
:1025300084C083F0835101D0846B8453EFE0050E97
:102540008E6F020E8F6F16EC02F080C08DF03BECA8
:1025500002F081C08DF03BEC02F03A0E8D6F3BEC47
:1025600002F082C08DF03BEC02F083C08DF03BECBA
:1025700002F0020E856FFA0E8E6F62EC01F0852F6D
:10258000FAD70A0E8A6F300E805D876F300E815D3C
:10259000886F8A51885D05E38A510A0DF3CF8AF06E
:1025A000F8D787518A03F3508825896F89C001F0D5
:1025B00001C014F00A0E8A6F300E825D876F300EF4
:1025C000835D886F8A51885D05E38A510A0DF3CFD8
:1025D0008AF0F8D787518A03F3508825896F89C01C
:1025E00001F001C015F0616B530E606F61C07FF0A8
:1025F00060C07EF0846B020E876F62EC04F0070E01
:102600008D6F3BEC02F07FC0EAFF7EC0E9FF7FECFC
:1026100004F0050E8E6F020E8F6F16EC02F016524C
:1026200009E1175207E1E40EF66E000EF76E52EC68
:1026300004F010D016C087F0010E886F64EC02F031
:102640003A0E8D6F3BEC02F017C087F0010E886FD9
:1026500064EC02F0F4EC03F001C084F084512F0824
:1026600007E28451320804E384C080F0805101D035
:10267000846B8453EFE0050E8E6F020E8F6F16ECA5
:1026800002F080C08DF03BEC02F0EC0EF66E000E16
:10269000F76E040E876FDFEC02F0F4EC03F001C07C
:1026A00084F08051300803E0805131080BE18451FF
:1026B0002F0807E28451390804E384C081F0815176
:1026C00001D0846B805132080BE184512F0807E25E
:1026D0008451340804E384C081F0815101D0846BBB
:1026E0008453DBE0050E8E6F020E8F6F16EC02F046
:1026F00080C08DF03BEC02F081C08DF03BEC02F02D
:102700003A0E8D6F3BEC02F04D0E8D6F3BEC02F0FC
:102710004D0E8D6F3BEC02F0F4EC03F001C084F041
:1027200084512F0807E28451350804E384C082F005
:10273000825101D0846B8453EFE0050E8E6F020E40
:102740008F6F16EC02F080C08DF03BEC02F081C080
:102750008DF03BEC02F03A0E8D6F3BEC02F082C044
:102760008DF03BEC02F04D0E8D6F3BEC02F0F4EC83
:1027700003F001C084F084512F0807E2845135082A
:1027800004E384C083F0835101D0846B8453EFE071
:10279000050E8E6F020E8F6F16EC02F080C08DF06A
:1027A0003BEC02F081C08DF03BEC02F03A0E8D6FF5
:1027B0003BEC02F082C08DF03BEC02F083C08DF068
:1027C0003BEC02F0020E856FFA0E8E6F62EC01F0A8
:1027D000852FFAD70A0E8A6F300E805D876F300E14
:1027E000815D886F8A51885D05E38A510A0DF3CFB8
:1027F0008AF0F8D787518A03F3508825896F89C0FA
:1028000001F001C016F00A0E8A6F300E825D876FEC
:10281000300E835D886F8A51885D05E38A510A0D09
:10282000F3CF8AF0F8D787518A03F3508825896F50
:1028300089C001F001C017F05F503308D8B45E2A98
:1028400086EF1BF0010E876F62EC04F0A60EF66EA9
:10285000010EF76E52EC04F0F4EC03F001C05FF0EF
:102860005F503108D8B45E065F503208D8A452D207
:10287000616B490E606F61C07FF060C07EF0846B59
:10288000020E876F62EC04F0070E8D6F3BEC02F0D6
:102890007FC0EAFF7EC0E9FF7FEC04F0050E8E6F7B
:1028A000020E8F6F16EC02F0185209E1195207E17F
:1028B000E40EF66E000EF76E52EC04F010D018C065
:1028C00087F0010E886F64EC02F03A0E8D6F3BECDE
:1028D00002F019C087F0010E886F64EC02F0F4EC8E
:1028E00003F001C084F084512F0807E284513208BC
:1028F00004E384C080F0805101D0846B8453EFE006
:10290000050E8E6F020E8F6F16EC02F080C08DF0F8
:102910003BEC02F0EC0EF66E000EF76E040E876FC5
:10292000DFEC02F0F4EC03F001C084F080513008D9
:1029300003E0805131080BE184512F0807E28451F4
:10294000390804E384C081F0815101D0846B805147
:1029500032080BE184512F0807E28451340804E364
:1029600084C081F0815101D0846B8453DBE0050E7B
:102970008E6F020E8F6F16EC02F080C08DF03BEC74
:1029800002F081C08DF03BEC02F03A0E8D6F3BEC13
:1029900002F04D0E8D6F3BEC02F04D0E8D6F3BEC57
:1029A00002F0F4EC03F001C084F084512F0807E238
:1029B0008451350804E384C082F0825101D0846BD5
:1029C0008453EFE0050E8E6F020E8F6F16EC02F04F
:1029D00080C08DF03BEC02F081C08DF03BEC02F04A
:1029E0003A0E8D6F3BEC02F082C08DF03BEC02F0B2
:1029F0004D0E8D6F3BEC02F0F4EC03F001C084F05F
:102A000084512F0807E28451350804E384C083F021
:102A1000835101D0846B8453EFE0050E8E6F020E5C
:102A20008F6F16EC02F080C08DF03BEC02F081C09D
:102A30008DF03BEC02F03A0E8D6F3BEC02F082C061
:102A40008DF03BEC02F083C08DF03BEC02F0020E07
:102A5000856FFA0E8E6F62EC01F0852FFAD70A0EA1
:102A60008A6F300E805D876F300E815D886F8A516E
:102A7000885D05E38A510A0DF3CF8AF0F8D78751B4
:102A80008A03F3508825896F89C001F001C018F0CE
:102A90000A0E8A6F300E825D876F300E835D886FFD
:102AA0008A51885D05E38A510A0DF3CF8AF0F8D781
:102AB00087518A03F3508825896F89C001F001C0CE
:102AC00019F0616B530E606F61C07FF060C07EF0E3
:102AD000846B020E876F62EC04F0070E8D6F3BEC87
:102AE00002F07FC0EAFF7EC0E9FF7FEC04F0050E34
:102AF0008E6F020E8F6F16EC02F01A5209E11B5214
:102B000007E1E40EF66E000EF76E52EC04F010D002
:102B10001AC087F0010E886F64EC02F03A0E8D6FD8
:102B20003BEC02F01BC087F0010E886F64EC02F0F2
:102B3000F4EC03F001C084F084512F0807E28451C3
:102B4000320804E384C080F0805101D0846B845348
:102B5000EFE0050E8E6F020E8F6F16EC02F080C054
:102B60008DF03BEC02F0EC0EF66E000EF76E040EEC
:102B7000876FDFEC02F0F4EC03F001C084F08051C9
:102B8000300803E0805131080BE184512F0807E23F
:102B90008451390804E384C081F0815101D0846BF1
:102BA000805132080BE184512F0807E28451340828
:102BB00004E384C081F0815101D0846B8453DBE055
:102BC000050E8E6F020E8F6F16EC02F080C08DF036
:102BD0003BEC02F081C08DF03BEC02F03A0E8D6FC1
:102BE0003BEC02F04D0E8D6F3BEC02F04D0E8D6F05
:102BF0003BEC02F0F4EC03F001C084F084512F08A8
:102C000007E28451350804E384C082F0825101D088
:102C1000846B8453EFE0050E8E6F020E8F6F16ECFF
:102C200002F080C08DF03BEC02F081C08DF03BECF7
:102C300002F03A0E8D6F3BEC02F082C08DF03BEC5F
:102C400002F04D0E8D6F3BEC02F0F4EC03F001C08E
:102C500084F084512F0807E28451350804E384C0CE
:102C600083F0835101D0846B8453EFE0050E8E6FA7
:102C7000020E8F6F16EC02F080C08DF03BEC02F07C
:102C800081C08DF03BEC02F03A0E8D6F3BEC02F010
:102C900082C08DF03BEC02F083C08DF03BEC02F083
:102CA000020E856FFA0E8E6F62EC01F0852FFAD757
:102CB0000A0E8A6F300E805D876F300E815D886FDF
:102CC0008A51885D05E38A510A0DF3CF8AF0F8D75F
:102CD00087518A03F3508825896F89C001F001C0AC
:102CE0001AF00A0E8A6F300E825D876F300E835D98
:102CF000886F8A51885D05E38A510A0DF3CF8AF007
:102D0000F8D787518A03F3508825896F89C001F06D
:102D100001C01BF05F503308D8B45E2A86EF1BF069
:102D2000010E876F62EC04F0B20EF66E010EF76EC4
:102D300052EC04F0F4EC03F001C05FF05F50310896
:102D4000D8B45E065F503208D8A452D2616B490EE7
:102D5000606F61C07FF060C07EF0846B020E876F91
:102D600062EC04F0070E8D6F3BEC02F07FC0EAFFCF
:102D70007EC0E9FF7FEC04F0050E8E6F020E8F6FB0
:102D800016EC02F01C5209E11D5207E1E40EF66E4A
:102D9000000EF76E52EC04F010D01CC087F0010E4C
:102DA000886F64EC02F03A0E8D6F3BEC02F01DC0B0
:102DB00087F0010E886F64EC02F0F4EC03F001C0C0
:102DC00084F084512F0807E28451320804E384C060
:102DD00080F0805101D0846B8453EFE0050E8E6F3C
:102DE000020E8F6F16EC02F080C08DF03BEC02F00B
:102DF000EC0EF66E000EF76E040E876FDFEC02F03D
:102E0000F4EC03F001C084F08051300803E08051FD
:102E100031080BE184512F0807E28451390804E39B
:102E200084C081F0815101D0846B805132080BE164
:102E300084512F0807E28451340804E384C081F0F0
:102E4000815101D0846B8453DBE0050E8E6F020E3E
:102E50008F6F16EC02F080C08DF03BEC02F081C069
:102E60008DF03BEC02F03A0E8D6F3BEC02F04D0E14
:102E70008D6F3BEC02F04D0E8D6F3BEC02F0F4ECED
:102E800003F001C084F084512F0807E28451350813
:102E900004E384C082F0825101D0846B8453EFE05C
:102EA000050E8E6F020E8F6F16EC02F080C08DF053
:102EB0003BEC02F081C08DF03BEC02F03A0E8D6FDE
:102EC0003BEC02F082C08DF03BEC02F04D0E8D6FBA
:102ED0003BEC02F0F4EC03F001C084F084512F08C5
:102EE00007E28451350804E384C083F0835101D0A4
:102EF000846B8453EFE0050E8E6F020E8F6F16EC1D
:102F000002F080C08DF03BEC02F081C08DF03BEC14
:102F100002F03A0E8D6F3BEC02F082C08DF03BEC7C
:102F200002F083C08DF03BEC02F0020E856FFA0ECA
:102F30008E6F62EC01F0852FFAD70A0E8A6F300E81
:102F4000805D876F300E815D886F8A51885D05E3F3
:102F50008A510A0DF3CF8AF0F8D787518A03F350CC
:102F60008825896F89C001F001C01CF00A0E8A6FA4
:102F7000300E825D876F300E835D886F8A51885D69
:102F800005E38A510A0DF3CF8AF0F8D787518A03F7
:102F9000F3508825896F89C001F001C01DF0616B75
:102FA000530E606F61C07FF060C07EF0846B020ED4
:102FB000876F62EC04F0070E8D6F3BEC02F07FC070
:102FC000EAFF7EC0E9FF7FEC04F0050E8E6F020E73
:102FD0008F6F16EC02F01E5209E11F5207E1E40E5A
:102FE000F66E000EF76E52EC04F010D01EC087F0A3
:102FF000010E886F64EC02F03A0E8D6F3BEC02F02C
:103000001FC087F0010E886F64EC02F0F4EC03F04F
:1030100001C084F084512F0807E28451320804E390
:1030200084C080F0805101D0846B8453EFE0050EA2
:103030008E6F020E8F6F16EC02F080C08DF03BECAD
:1030400002F0EC0EF66E000EF76E040E876FDFECEA
:1030500002F0F4EC03F001C084F08051300803E08A
:10306000805131080BE184512F0807E2845139085F
:1030700004E384C081F0815101D0846B8051320817
:103080000BE184512F0807E28451340804E384C023
:1030900081F0815101D0846B8453DBE0050E8E6F8B
:1030A000020E8F6F16EC02F080C08DF03BEC02F048
:1030B00081C08DF03BEC02F03A0E8D6F3BEC02F0DC
:1030C0004D0E8D6F3BEC02F04D0E8D6F3BEC02F020
:1030D000F4EC03F001C084F084512F0807E284511E
:1030E000350804E384C082F0825101D0846B84539C
:1030F000EFE0050E8E6F020E8F6F16EC02F080C0AF
:103100008DF03BEC02F081C08DF03BEC02F03A0E0A
:103110008D6F3BEC02F082C08DF03BEC02F04D0E67
:103120008D6F3BEC02F0F4EC03F001C084F08451AD
:103130002F0807E28451350804E384C083F08351EB
:1031400001D0846B8453EFE0050E8E6F020E8F6FFB
:1031500016EC02F080C08DF03BEC02F081C08DF0E7
:103160003BEC02F03A0E8D6F3BEC02F082C08DF02A
:103170003BEC02F083C08DF03BEC02F0020E856F59
:10318000FA0E8E6F62EC01F0852FFAD70A0E8A6F65
:10319000300E805D876F300E815D886F8A51885D4B
:1031A00005E38A510A0DF3CF8AF0F8D787518A03D5
:1031B000F3508825896F89C001F001C01EF00A0E06
:1031C0008A6F300E825D876F300E835D886F8A5103
:1031D000885D05E38A510A0DF3CF8AF0F8D787514D
:1031E0008A03F3508825896F89C001F001C01FF060
:1031F0005F503308D8B45E2A89D2010E876F62EC23
:1032000004F0BC0EF66E010EF76E52EC04F0F4EC16
:1032100003F001C05FF05F503108D8B45E065F5024
:103220003208D8A452D2616B490E606F61C07FF042
:1032300060C07EF0846B020E876F62EC04F0070EB4
:103240008D6F3BEC02F07FC0EAFF7EC0E9FF7FECB0
:1032500004F0050E8E6F020E8F6F16EC02F02052F6
:1032600009E1215207E1E40EF66E000EF76E52EC12
:1032700004F010D020C087F0010E886F64EC02F0DB
:103280003A0E8D6F3BEC02F021C087F0010E886F83
:1032900064EC02F0F4EC03F001C084F084512F08D8
:1032A00007E28451320804E384C080F0805101D0E9
:1032B000846B8453EFE0050E8E6F020E8F6F16EC59
:1032C00002F080C08DF03BEC02F0EC0EF66E000ECA
:1032D000F76E040E876FDFEC02F0F4EC03F001C030
:1032E00084F08051300803E0805131080BE18451B3
:1032F0002F0807E28451390804E384C081F081512A
:1033000001D0846B805132080BE184512F0807E211
:103310008451340804E384C081F0815101D0846B6E
:103320008453DBE0050E8E6F020E8F6F16EC02F0F9
:1033300080C08DF03BEC02F081C08DF03BEC02F0E0
:103340003A0E8D6F3BEC02F04D0E8D6F3BEC02F0B0
:103350004D0E8D6F3BEC02F0F4EC03F001C084F0F5
:1033600084512F0807E28451350804E384C082F0B9
:10337000825101D0846B8453EFE0050E8E6F020EF4
:103380008F6F16EC02F080C08DF03BEC02F081C034
:103390008DF03BEC02F03A0E8D6F3BEC02F082C0F8
:1033A0008DF03BEC02F04D0E8D6F3BEC02F0F4EC37
:1033B00003F001C084F084512F0807E284513508DE
:1033C00004E384C083F0835101D0846B8453EFE025
:1033D000050E8E6F020E8F6F16EC02F080C08DF01E
:1033E0003BEC02F081C08DF03BEC02F03A0E8D6FA9
:1033F0003BEC02F082C08DF03BEC02F083C08DF01C
:103400003BEC02F0020E856FFA0E8E6F62EC01F05B
:10341000852FFAD70A0E8A6F300E805D876F300EC7
:10342000815D886F8A51885D05E38A510A0DF3CF6B
:103430008AF0F8D787518A03F3508825896F89C0AD
:1034400001F001C020F00A0E8A6F300E825D876F96
:10345000300E835D886F8A51885D05E38A510A0DBD
:10346000F3CF8AF0F8D787518A03F3508825896F04
:1034700089C001F001C021F0616B530E606F61C023
:103480007FF060C07EF0846B020E876F62EC04F008
:10349000070E8D6F3BEC02F07FC0EAFF7EC0E9FFB4
:1034A0007FEC04F0050E8E6F020E8F6F16EC02F0AB
:1034B000225209E1235207E1E40EF66E000EF76E88
:1034C00052EC04F010D022C087F0010E886F64EC3B
:1034D00002F03A0E8D6F3BEC02F023C087F0010E34
:1034E000886F64EC02F0F4EC03F001C084F08451C6
:1034F0002F0807E28451320804E384C080F0805131
:1035000001D0846B8453EFE0050E8E6F020E8F6F37
:1035100016EC02F080C08DF03BEC02F0EC0EF66E83
:10352000000EF76E040E876FDFEC02F0F4EC03F090
:1035300001C084F08051300803E0805131080BE174
:1035400084512F0807E28451390804E384C081F0D4
:10355000815101D0846B805132080BE184512F08D6
:1035600007E28451340804E384C081F0815101D022
:10357000846B8453DBE0050E8E6F020E8F6F16ECAA
:1035800002F080C08DF03BEC02F081C08DF03BEC8E
:1035900002F03A0E8D6F3BEC02F04D0E8D6F3BEC5E
:1035A00002F04D0E8D6F3BEC02F0F4EC03F001C025
:1035B00084F084512F0807E28451350804E384C065
:1035C00082F0825101D0846B8453EFE0050E8E6F40
:1035D000020E8F6F16EC02F080C08DF03BEC02F013
:1035E00081C08DF03BEC02F03A0E8D6F3BEC02F0A7
:1035F00082C08DF03BEC02F04D0E8D6F3BEC02F083
:10360000F4EC03F001C084F084512F0807E28451E8
:10361000350804E384C083F0835101D0846B845364
:10362000EFE0050E8E6F020E8F6F16EC02F080C079
:103630008DF03BEC02F081C08DF03BEC02F03A0ED5
:103640008D6F3BEC02F082C08DF03BEC02F083C04A
:103650008DF03BEC02F0020E856FFA0E8E6F62EC7D
:1036600001F0852FFAD70A0E8A6F300E805D876FC2
:10367000300E815D886F8A51885D05E38A510A0D9D
:10368000F3CF8AF0F8D787518A03F3508825896FE2
:1036900089C001F001C022F00A0E8A6F300E825DEF
:1036A000876F300E835D886F8A51885D05E38A518C
:1036B0000A0DF3CF8AF0F8D787518A03F350882593
:1036C000896F89C001F001C023F05F503308D8B47E
:1036D0005E2A1CD0010E876F62EC04F0C80EF66EF5
:1036E000010EF76E52EC04F0F4EC03F001C05FF051
:1036F0005F503108D8B45E065F503208D8B45E6AB5
:103700005F50330802E1010E5E6E00D045EF0AF013
:10371000010E7C6F7E6B080E7D6FC7EF08F02C509A
:103720003308D8B42B2A1CD0010E876F62EC04F04A
:10373000080EF66E020EF76E52EC04F0F4EC03F095
:1037400001C02CF02C503108D8B42B062C50320874
:10375000D8B42B6A2C50330802E1010E2B6E00D036
:10376000CAEF09F0020E876F62EC04F03DEF09F03A
:02377000030054
:020000040030CA
:0E0000003FC8390E0087A1000FC00FE00F406F
:00000001FF
;PIC18F4550
;CRC=2ED8  CREATED="13-mar-17 16:21"
